{
  "contractName": "BaseContract",
  "abi": [
    {
      "inputs": [],
      "stateMutability": "nonpayable",
      "type": "constructor"
    },
    {
      "inputs": [
        {
          "internalType": "uint256",
          "name": "",
          "type": "uint256"
        }
      ],
      "name": "governanceFactory",
      "outputs": [
        {
          "internalType": "contract GovernanceFactory",
          "name": "",
          "type": "address"
        }
      ],
      "stateMutability": "view",
      "type": "function",
      "constant": true
    },
    {
      "inputs": [
        {
          "internalType": "address",
          "name": "",
          "type": "address"
        }
      ],
      "name": "ownedFactory",
      "outputs": [
        {
          "internalType": "address",
          "name": "",
          "type": "address"
        }
      ],
      "stateMutability": "view",
      "type": "function",
      "constant": true
    },
    {
      "inputs": [
        {
          "internalType": "address",
          "name": "wallet",
          "type": "address"
        },
        {
          "internalType": "string",
          "name": "_universityName",
          "type": "string"
        }
      ],
      "name": "hash",
      "outputs": [
        {
          "internalType": "bytes32",
          "name": "",
          "type": "bytes32"
        }
      ],
      "stateMutability": "pure",
      "type": "function",
      "constant": true
    },
    {
      "inputs": [
        {
          "internalType": "string",
          "name": "_universityName",
          "type": "string"
        },
        {
          "internalType": "address",
          "name": "_owner",
          "type": "address"
        },
        {
          "internalType": "uint8",
          "name": "v",
          "type": "uint8"
        },
        {
          "internalType": "bytes32",
          "name": "r",
          "type": "bytes32"
        },
        {
          "internalType": "bytes32",
          "name": "s",
          "type": "bytes32"
        }
      ],
      "name": "createMyOwnFactory",
      "outputs": [],
      "stateMutability": "nonpayable",
      "type": "function"
    },
    {
      "inputs": [
        {
          "internalType": "address",
          "name": "_owner",
          "type": "address"
        }
      ],
      "name": "getContractAdd",
      "outputs": [
        {
          "internalType": "address",
          "name": "",
          "type": "address"
        }
      ],
      "stateMutability": "view",
      "type": "function",
      "constant": true
    },
    {
      "inputs": [],
      "name": "returnChainId",
      "outputs": [
        {
          "internalType": "uint256",
          "name": "",
          "type": "uint256"
        }
      ],
      "stateMutability": "view",
      "type": "function",
      "constant": true
    }
  ],
  "bytecode": "0x60a060405234801561001057600080fd5b506100606040518060400160405280600c81526020016b424153455f464143544f525960a01b815250604051806040016040528060018152602001603160f81b815250463061006860201b60201c565b6080526100e4565b8351602094850120835193850193909320604080517f8b73c3c69bb8fe3d512ecc4cf759cc79239f7b179b0ffacaa9a75d522b39400f8188015280820195909552606085019190915260808401929092526001600160a01b031660a0808401919091528151808403909101815260c09092019052805191012090565b6080516148626100ff600039600061022701526148626000f3fe608060405234801561001057600080fd5b50600436106100625760003560e01c80630dd840681461006757806316b3b3db146100b057806318c3184f146100c057806394800bd7146100d3578063a3ace177146100fc578063c8e187881461010f575b600080fd5b610093610075366004610403565b6001600160a01b039081166000908152600160205260409020541690565b6040516001600160a01b0390911681526020015b60405180910390f35b465b6040519081526020016100a7565b6100936100ce366004610425565b610124565b6100936100e1366004610403565b6001602052600090815260409020546001600160a01b031681565b6100b261010a3660046104e1565b61014e565b61012261011d36600461052f565b6101c0565b005b6000818154811061013457600080fd5b6000918252602090912001546001600160a01b0316905081565b60006040518060600160405280602c815260200162004801602c913980516020918201208351848301206040516101a293879291019283526001600160a01b03919091166020830152604082015260600190565b60405160208183030381529060405280519060200120905092915050565b6001600160a01b0384811660009081526001602052604090205416156102235760405162461bcd60e51b81526020600482015260136024820152721e5bdd48185b1c9958591e4818dc99585d1959606a1b60448201526064015b60405180910390fd5b60007f0000000000000000000000000000000000000000000000000000000000000000610250868861014e565b60405161190160f01b60208201526022810192909252604282015260620160408051601f198184030181528282528051602091820120600080855291840180845281905260ff88169284019290925260608301869052608083018590529092509060019060a0016020604051602081039080840390855afa1580156102d9573d6000803e3d6000fd5b505050602060405103519050856001600160a01b0316816001600160a01b0316146103375760405162461bcd60e51b815260206004820152600e60248201526d24a72b20a624a22fa9a4a3a722a960911b604482015260640161021a565b600087604051610346906103d9565b61035091906105a7565b604051809103906000f08015801561036c573d6000803e3d6000fd5b5060008054600181810183557f290decd9548b62a8d60345a988386fc84ba6bc95484008f6362f93160ef3e56390910180546001600160a01b039485166001600160a01b031991821681179092559a90931682526020526040902080549098161790965550505050505050565b61420b80620005f683390190565b80356001600160a01b03811681146103fe57600080fd5b919050565b60006020828403121561041557600080fd5b61041e826103e7565b9392505050565b60006020828403121561043757600080fd5b5035919050565b634e487b7160e01b600052604160045260246000fd5b600082601f83011261046557600080fd5b813567ffffffffffffffff808211156104805761048061043e565b604051601f8301601f19908116603f011681019082821181831017156104a8576104a861043e565b816040528381528660208588010111156104c157600080fd5b836020870160208301376000602085830101528094505050505092915050565b600080604083850312156104f457600080fd5b6104fd836103e7565b9150602083013567ffffffffffffffff81111561051957600080fd5b61052585828601610454565b9150509250929050565b600080600080600060a0868803121561054757600080fd5b853567ffffffffffffffff81111561055e57600080fd5b61056a88828901610454565b955050610579602087016103e7565b9350604086013560ff8116811461058f57600080fd5b94979396509394606081013594506080013592915050565b600060208083528351808285015260005b818110156105d4578581018301518582016040015282016105b8565b506000604082860101526040601f19601f830116850101925050509291505056fe60c06040523480156200001157600080fd5b506040516200420b3803806200420b833981016040819052620000349162000110565b46608052600262000046828262000274565b506200007481604051806040016040528060018152602001603160f81b81525046306200007e60201b60201c565b60a0525062000340565b8351602094850120835193850193909320604080517f8b73c3c69bb8fe3d512ecc4cf759cc79239f7b179b0ffacaa9a75d522b39400f8188015280820195909552606085019190915260808401929092526001600160a01b031660a0808401919091528151808403909101815260c09092019052805191012090565b634e487b7160e01b600052604160045260246000fd5b600060208083850312156200012457600080fd5b82516001600160401b03808211156200013c57600080fd5b818501915085601f8301126200015157600080fd5b815181811115620001665762000166620000fa565b604051601f8201601f19908116603f01168101908382118183101715620001915762000191620000fa565b816040528281528886848701011115620001aa57600080fd5b600093505b82841015620001ce5784840186015181850187015292850192620001af565b600086848301015280965050505050505092915050565b600181811c90821680620001fa57607f821691505b6020821081036200021b57634e487b7160e01b600052602260045260246000fd5b50919050565b601f8211156200026f57600081815260208120601f850160051c810160208610156200024a5750805b601f850160051c820191505b818110156200026b5782815560010162000256565b5050505b505050565b81516001600160401b03811115620002905762000290620000fa565b620002a881620002a18454620001e5565b8462000221565b602080601f831160018114620002e05760008415620002c75750858301515b600019600386901b1c1916600185901b1785556200026b565b600085815260208120601f198616915b828110156200031157888601518255948401946001909101908401620002f0565b5085821015620003305787850151600019600388901b60f8161c191681555b5050505050600190811b01905550565b60805160a051613ea8620003636000396000610219015260005050613ea86000f3fe60806040523480156200001157600080fd5b5060043610620000935760003560e01c8063a4059b031162000062578063a4059b031462000115578063ac53a361146200012e578063df018c3d146200015e578063f5f5ba72146200017557600080fd5b806316b3b3db14620000985780636a4e316814620000ad57806375d0c0dc14620000d95780637ecebe0014620000f2575b600080fd5b465b6040519081526020015b60405180910390f35b6200009a620000be366004620005f1565b6001600160a01b031660009081526001602052604090205490565b620000e36200017f565b604051620000a491906200065e565b6200009a62000103366004620005f1565b60016020526000908152604090205481565b6200012c620001263660046200071e565b62000215565b005b620001456200013f366004620007e5565b6200046c565b6040516001600160a01b039091168152602001620000a4565b6200009a6200016f366004620007ff565b62000497565b620000e36200052c565b600280546200018e90620008a1565b80601f0160208091040260200160405190810160405280929190818152602001828054620001bc90620008a1565b80156200020d5780601f10620001e1576101008083540402835291602001916200020d565b820191906000526020600020905b815481529060010190602001808311620001ef57829003601f168201915b505050505081565b60007f00000000000000000000000000000000000000000000000000000000000000006200026d878b8b8b600160008d6001600160a01b03166001600160a01b03168152602001908152602001600020548b62000497565b60405161190160f01b60208201526022810192909252604282015260620160408051601f198184030181528282528051602091820120600080855291840180845281905260ff88169284019290925260608301869052608083018590529092509060019060a0016020604051602081039080840390855afa158015620002f7573d6000803e3d6000fd5b505050602060405103519050866001600160a01b0316816001600160a01b0316146200035a5760405162461bcd60e51b815260206004820152600e60248201526d24a72b20a624a22fa9a4a3a722a960911b604482015260640160405180910390fd5b60008a8a898b8a6040516200036f90620005c6565b6200037f959493929190620008dd565b604051809103906000f0801580156200039c573d6000803e3d6000fd5b5060008054600180820183557f290decd9548b62a8d60345a988386fc84ba6bc95484008f6362f93160ef3e56390910180546001600160a01b0319166001600160a01b03858116919091179091558b16825260205260408120805492935090620004068362000933565b9190505550806001600160a01b0316886001600160a01b03167f1cbc5944ac0b1f13da48b4ceb7c8c02e39b66583c0ae4f41863d2fba586af3036000805490508e604051620004579291906200095b565b60405180910390a35050505050505050505050565b600081815481106200047d57600080fd5b6000918252602090912001546001600160a01b0316905081565b60006040518060a00160405280607e815260200162003df5607e9139805160209182012087518883012086518784012060408051948501939093526001600160a01b03808c169385019390935260608401919091526080830188905260a083015260c08201859052831660e0820152610100016040516020818303038152906040528051906020012090509695505050505050565b6060600280546200053d90620008a1565b80601f01602080910402602001604051908101604052809291908181526020018280546200056b90620008a1565b8015620005bc5780601f106200059057610100808354040283529160200191620005bc565b820191906000526020600020905b8154815290600101906020018083116200059e57829003601f168201915b5050505050905090565b613476806200097f83390190565b80356001600160a01b0381168114620005ec57600080fd5b919050565b6000602082840312156200060457600080fd5b6200060f82620005d4565b9392505050565b6000815180845260005b818110156200063e5760208185018101518683018201520162000620565b506000602082860101526020601f19601f83011685010191505092915050565b6020815260006200060f602083018462000616565b634e487b7160e01b600052604160045260246000fd5b600082601f8301126200069b57600080fd5b813567ffffffffffffffff80821115620006b957620006b962000673565b604051601f8301601f19908116603f01168101908282118183101715620006e457620006e462000673565b81604052838152866020858801011115620006fe57600080fd5b836020870160208301376000602085830101528094505050505092915050565b600080600080600080600080610100898b0312156200073c57600080fd5b883567ffffffffffffffff808211156200075557600080fd5b620007638c838d0162000689565b995060208b0135985060408b01359150808211156200078157600080fd5b50620007908b828c0162000689565b965050620007a160608a01620005d4565b9450620007b160808a01620005d4565b935060a089013560ff81168114620007c857600080fd5b979a969950949793969295929450505060c08201359160e0013590565b600060208284031215620007f857600080fd5b5035919050565b60008060008060008060c087890312156200081957600080fd5b6200082487620005d4565b9550602087013567ffffffffffffffff808211156200084257600080fd5b620008508a838b0162000689565b96506040890135955060608901359150808211156200086e57600080fd5b506200087d89828a0162000689565b935050608087013591506200089560a08801620005d4565b90509295509295509295565b600181811c90821680620008b657607f821691505b602082108103620008d757634e487b7160e01b600052602260045260246000fd5b50919050565b60a081526000620008f260a083018862000616565b602083018790526001600160a01b03868116604085015283820360608501526200091d828762000616565b9250808516608085015250509695505050505050565b6000600182016200095457634e487b7160e01b600052601160045260246000fd5b5060010190565b82815260406020820152600062000976604083018462000616565b94935050505056fe60c06040526000600a553480156200001657600080fd5b506040516200347638038062003476833981016040819052620000399162000234565b600180546001600160a01b0319163017905560026200005986826200035c565b506003849055600480546001600160a01b0319166001600160a01b03851617905560056200008883826200035c565b50466080818152600080546001600160a01b0319166001600160a01b03851617905560408051808201825260018152603160f81b60209182015288518982012082517f8b73c3c69bb8fe3d512ecc4cf759cc79239f7b179b0ffacaa9a75d522b39400f81840152808401919091527fc89efdaa54c0f20c7adf612882df0950f5a951637e0307cdcb4c672f298b8bc66060820152928301939093523060a0808401919091528151808403909101815260c09092019052805191012060a05250620004289350505050565b634e487b7160e01b600052604160045260246000fd5b600082601f8301126200017a57600080fd5b81516001600160401b038082111562000197576200019762000152565b604051601f8301601f19908116603f01168101908282118183101715620001c257620001c262000152565b81604052838152602092508683858801011115620001df57600080fd5b600091505b83821015620002035785820183015181830184015290820190620001e4565b600093810190920192909252949350505050565b80516001600160a01b03811681146200022f57600080fd5b919050565b600080600080600060a086880312156200024d57600080fd5b85516001600160401b03808211156200026557600080fd5b6200027389838a0162000168565b9650602088015195506200028a6040890162000217565b94506060880151915080821115620002a157600080fd5b50620002b08882890162000168565b925050620002c16080870162000217565b90509295509295909350565b600181811c90821680620002e257607f821691505b6020821081036200030357634e487b7160e01b600052602260045260246000fd5b50919050565b601f8211156200035757600081815260208120601f850160051c81016020861015620003325750805b601f850160051c820191505b8181101562000353578281556001016200033e565b5050505b505050565b81516001600160401b0381111562000378576200037862000152565b6200039081620003898454620002cd565b8462000309565b602080601f831160018114620003c85760008415620003af5750858301515b600019600386901b1c1916600185901b17855562000353565b600085815260208120601f198616915b82811015620003f957888601518255948401946001909101908401620003d8565b5085821015620004185787850151600019600388901b60f8161c191681555b5050505050600190811b01905550565b60805160a051613001620004756000396000818161095301528181610eec0152818161123b015281816117a101528181611a8301528181611cd201526120cd0152600050506130016000f3fe608060405234801561001057600080fd5b50600436106102695760003560e01c80638406c07911610151578063d421bc23116100c3578063ee82cf4011610087578063ee82cf4014610662578063eed4ea8f14610675578063efb5473614610698578063f0c7a626146106a0578063f3e27898146106b3578063f6b4dfb4146106e157600080fd5b8063d421bc23146105e4578063d6d08dca146105ed578063daadd00f14610600578063dc52268914610623578063de5f88701461064f57600080fd5b8063affed0e011610115578063affed0e014610579578063b064405814610582578063b4409e5114610595578063b7fb707b1461059e578063ca2e74d8146105be578063cf4f1b9c146105d157600080fd5b80638406c0791461050a5780638da5cb5b1461051d578063a934a0e214610530578063aedeccc914610551578063af7135661461056457600080fd5b80632f5b663f116101ea57806365d894e9116101ae57806365d894e914610435578063669451851461046657806369823fd51461048f5780637cd308fa146104a2578063809638b2146104cb57806382f7d392146104de57600080fd5b80632f5b663f146103bd57806345dcde43146103d05780634d8b93b2146103e35780635e2ab79f146103f65780635e98a1451461040957600080fd5b806325a928221161023157806325a928221461032257806328ad98b3146103355780632a6ec7401461035e5780632d1272ea146103875780632f2aa63c146103aa57600080fd5b806309dbdf161461026e5780630beae552146102af57806316b3b3db146102d25780631aad75c5146102e25780631adb9ac51461030d575b600080fd5b61029a61027c36600461234d565b6001600160a01b031660009081526007602052604090205460ff1690565b60405190151581526020015b60405180910390f35b61029a6102bd36600461234d565b60086020526000908152604090205460ff1681565b465b6040519081526020016102a6565b6102f56102f0366004612411565b6106f4565b6040516001600160a01b0390911681526020016102a6565b61032061031b366004612466565b610773565b005b61032061033036600461252c565b610ab4565b6102f5610343366004612579565b6010602052600090815260409020546001600160a01b031681565b6102f561036c366004612579565b6012602052600090815260409020546001600160a01b031681565b61029a61039536600461234d565b60076020526000908152604090205460ff1681565b6102d46103b8366004612592565b610bb8565b6102d46103cb3660046125ef565b610c33565b6103206103de36600461268f565b610cc2565b6103206103f1366004612466565b611067565b610320610404366004612766565b611389565b61029a61041736600461234d565b6001600160a01b031660009081526009602052604090205460ff1690565b610448610443366004612862565b611519565b60408051938452602084019290925260ff16908201526060016102a6565b6102f5610474366004612579565b6013602052600090815260409020546001600160a01b031681565b61032061049d36600461268f565b611576565b6102f56104b0366004612579565b6011602052600090815260409020546001600160a01b031681565b6102d46104d936600461289e565b611908565b61029a6104ec36600461234d565b6001600160a01b031660009081526006602052604090205460ff1690565b6000546102f5906001600160a01b031681565b6004546102f5906001600160a01b031681565b61054361053e366004612940565b611977565b6040516102a69291906129ba565b61032061055f3660046129de565b611a29565b61056c611b81565b6040516102a69190612a97565b6102d4600f5481565b610320610590366004612aaa565b611c0f565b6102d4600a5481565b6102d46105ac36600461234d565b600d6020526000908152604090205481565b6103206105cc36600461234d565b611e5c565b61029a6105df366004612b40565b611f0f565b6102d460035481565b61056c6105fb36600461234d565b611fad565b61029a61060e36600461234d565b60066020526000908152604090205460ff1681565b61029a61063136600461234d565b6001600160a01b031660009081526008602052604090205460ff1690565b61032061065d366004612b99565b61205c565b61056c610670366004612940565b61224e565b61029a61068336600461234d565b60096020526000908152604090205460ff1681565b61056c612309565b6105436106ae36600461234d565b612316565b61029a6106c1366004612862565b8051602081830181018051600e8252928201919093012091525460ff1681565b6001546102f5906001600160a01b031681565b60008060008061070386611519565b6040805160008152602081018083528a905260ff8316918101919091526060810184905260808101839052929550909350915060019060a0016020604051602081039080840390855afa15801561075e573d6000803e3d6000fd5b5050604051601f190151979650505050505050565b6001600160a01b0388166000908152600660205260409020548890859060ff1615156001036107bd5760405162461bcd60e51b81526004016107b490612c16565b60405180910390fd5b6001600160a01b03821660009081526007602052604090205460ff1615156001036107fa5760405162461bcd60e51b81526004016107b490612c33565b6001600160a01b03821660009081526009602052604090205460ff1615156001036108375760405162461bcd60e51b81526004016107b490612c50565b6001600160a01b03821660009081526008602052604090205460ff1615156001036108745760405162461bcd60e51b81526004016107b490612c6d565b6004546001600160a01b038084169116036108a15760405162461bcd60e51b81526004016107b490612c8a565b60008181526014602052604090205460ff1615156001036108d45760405162461bcd60e51b81526004016107b490612ca7565b60408051808201909152600681526533b930b232b960d11b6020918201528751908801207fc74177e3d3150a5423bd87048e7b95e2a2b5332b67459e376789a2e00239b0a41461094f5760405162461bcd60e51b81526004016107b49060208082526004908201526347534f4160e01b604082015260600190565b60007f000000000000000000000000000000000000000000000000000000000000000061097f8c8c8c8c8c610c33565b604051602001610990929190612cc4565b60408051601f198184030181528282528051602091820120600080855291840180845281905260ff8a169284019290925260608301889052608083018790529092509060019060a0016020604051602081039080840390855afa1580156109fb573d6000803e3d6000fd5b5050604051601f1901516004549092506001600160a01b038084169116149050610a375760405162461bcd60e51b81526004016107b490612cdf565b6001600160a01b038c1660008181526007602090815260408083208054600160ff1991821681179092558d85526014845282852080549091169091179055600f805484526010909252822080546001600160a01b03191690931790925581549190610aa183612cfd565b9190505550505050505050505050505050565b6001600160a01b03821660009081526006602052604090205460ff161515600114610b0c5760405162461bcd60e51b81526020600482015260086024820152672159414e4852544d60c01b60448201526064016107b4565b6003546001600160a01b0383166000908152600d602052604090205414610b5b5760405162461bcd60e51b81526020600482015260036024820152624e454d60e81b60448201526064016107b4565b60408051808201825282815260016020808301919091526001600160a01b0385166000908152600c9091529190912081518190610b989082612dad565b50602091909101516001909101805460ff19169115159190911790555050565b6000604051806080016040528060418152602001612f8b60419139805160209182012085518683012060408051938401929092526001600160a01b0388169183019190915260608201526080810184905260a0810183905260c001604051602081830303815290604052805190602001209050949350505050565b60006040518060800160405280605c8152602001612f2f605c9139805160209182012086518783012086518784012086518785012060408051958601949094526001600160a01b038b16938501939093526060840191909152608083015260a082015260c0810183905260e0015b60405160208183030381529060405280519060200120905095945050505050565b6001600160a01b0389166000908152600660205260409020548990859060ff161515600103610d035760405162461bcd60e51b81526004016107b490612c16565b6001600160a01b03821660009081526007602052604090205460ff161515600103610d405760405162461bcd60e51b81526004016107b490612c33565b6001600160a01b03821660009081526009602052604090205460ff161515600103610d7d5760405162461bcd60e51b81526004016107b490612c50565b6001600160a01b03821660009081526008602052604090205460ff161515600103610dba5760405162461bcd60e51b81526004016107b490612c6d565b6004546001600160a01b03808416911603610de75760405162461bcd60e51b81526004016107b490612c8a565b60008181526014602052604090205460ff161515600103610e1a5760405162461bcd60e51b81526004016107b490612ca7565b60408051808201909152600681526536b2b73a37b960d11b6020918201528751908801207f23cced0a949a432105f92942538d0d91647a5743f1a3d4ac0eb59081a606193614610e955760405162461bcd60e51b81526004016107b4906020808252600490820152634d534f4160e01b604082015260600190565b6001600160a01b038a1660009081526008602052604090205460ff161515600114610ee85760405162461bcd60e51b81526020600482015260036024820152620a69c960eb1b60448201526064016107b4565b60007f0000000000000000000000000000000000000000000000000000000000000000610f188d8c8c8c8c610c33565b604051602001610f29929190612cc4565b60408051601f198184030181528282528051602091820120600080855291840180845281905260ff8a169284019290925260608301889052608083018790529092509060019060a0016020604051602081039080840390855afa158015610f94573d6000803e3d6000fd5b5050506020604051035190508b6001600160a01b0316816001600160a01b031614610fe95760405162461bcd60e51b815260206004820152600560248201526410a9a4a3a760d91b60448201526064016107b4565b6001600160a01b038d1660008181526009602090815260408083208054600160ff1991821681179092558d85526014845282852080549091169091179055600f805484526012909252822080546001600160a01b0319169093179092558154919061105383612cfd565b919050555050505050505050505050505050565b6001600160a01b0388166000908152600660205260409020548890859060ff1615156001036110a85760405162461bcd60e51b81526004016107b490612c16565b6001600160a01b03821660009081526007602052604090205460ff1615156001036110e55760405162461bcd60e51b81526004016107b490612c33565b6001600160a01b03821660009081526009602052604090205460ff1615156001036111225760405162461bcd60e51b81526004016107b490612c50565b6001600160a01b03821660009081526008602052604090205460ff16151560010361115f5760405162461bcd60e51b81526004016107b490612c6d565b6004546001600160a01b0380841691160361118c5760405162461bcd60e51b81526004016107b490612c8a565b60008181526014602052604090205460ff1615156001036111bf5760405162461bcd60e51b81526004016107b490612ca7565b6040805180820190915260038152621a1bd960ea1b6020918201528751908801207f4c6726fee7c25b5e036a5e6d5ba226ec7444aa63d9883493310ff1ba0ec22840146112375760405162461bcd60e51b81526004016107b49060208082526004908201526348534f4160e01b604082015260600190565b60007f00000000000000000000000000000000000000000000000000000000000000006112678c8c8c8c8c610c33565b604051602001611278929190612cc4565b60408051601f198184030181528282528051602091820120600080855291840180845281905260ff8a169284019290925260608301889052608083018790529092509060019060a0016020604051602081039080840390855afa1580156112e3573d6000803e3d6000fd5b5050604051601f1901516004549092506001600160a01b03808416911614905061131f5760405162461bcd60e51b81526004016107b490612cdf565b6001600160a01b038c1660008181526008602090815260408083208054600160ff1991821681179092558d85526014845282852080549091169091179055600f805484526013909252822080546001600160a01b03191690931790925581549190610aa183612cfd565b6001600160a01b03881660009081526006602052604090205460ff1615156001146113dc5760405162461bcd60e51b8152602060048201526003602482015262594e5360e81b60448201526064016107b4565b600e856040516113ec9190612e6c565b9081526040519081900360200190205460ff161561141c5760405162461bcd60e51b81526004016107b490612c50565b600080600061142a87611519565b9250925092506114418a8a8a8e8a89878a8a611a29565b61144b8686611f0f565b5060408051808201825287815260016020808301919091526001600160a01b038e166000908152600b82528381208d825290915291909120815181906114919082612dad565b506020918201516001918201805460ff19169115159190911790556001600160a01b038d166000908152600d9092526040918290208b90559051600e906114d9908b90612e6c565b908152604051908190036020019020805491151560ff19909216919091179055600354890361150c5761150c8b85610ab4565b5050505050505050505050565b600080600083516041146115585760405162461bcd60e51b81526004016107b49060208082526004908201526304c494e560e41b604082015260600190565b50505060208101516040820151606090920151909260009190911a90565b6001600160a01b0389166000908152600660205260409020548990859060ff1615156001036115b75760405162461bcd60e51b81526004016107b490612c16565b6001600160a01b03821660009081526007602052604090205460ff1615156001036115f45760405162461bcd60e51b81526004016107b490612c33565b6001600160a01b03821660009081526009602052604090205460ff1615156001036116315760405162461bcd60e51b81526004016107b490612c50565b6001600160a01b03821660009081526008602052604090205460ff16151560010361166e5760405162461bcd60e51b81526004016107b490612c6d565b6004546001600160a01b0380841691160361169b5760405162461bcd60e51b81526004016107b490612c8a565b60008181526014602052604090205460ff1615156001036116ce5760405162461bcd60e51b81526004016107b490612ca7565b6040805180820190915260078152661cdd1d59195b9d60ca1b6020918201528751908801207f51e8ccf16b7d0bf6dbff3704faa1cc765b8473004eafd29e94bfe47167ff5e931461174a5760405162461bcd60e51b81526004016107b49060208082526004908201526353534f4160e01b604082015260600190565b6001600160a01b038a1660009081526009602052604090205460ff16151560011461179d5760405162461bcd60e51b8152602060048201526003602482015262534e4d60e81b60448201526064016107b4565b60007f00000000000000000000000000000000000000000000000000000000000000006117cd8d8c8c8c8c610c33565b6040516020016117de929190612cc4565b60408051601f198184030181528282528051602091820120600080855291840180845281905260ff8a169284019290925260608301889052608083018790529092509060019060a0016020604051602081039080840390855afa158015611849573d6000803e3d6000fd5b5050506020604051035190508b6001600160a01b0316816001600160a01b03161461189e5760405162461bcd60e51b815260206004820152600560248201526410a9a4a3a760d91b60448201526064016107b4565b6001600160a01b038d1660008181526006602090815260408083208054600160ff1991821681179092558d85526014845282852080549091169091179055600f805484526011909252822080546001600160a01b0319169093179092558154919061105383612cfd565b60006040518060a0016040528060618152602001612ece60619139805160209182012086518783012085518684012085518685012060408051958601949094529284018a905260608401919091526001600160a01b038716608084015260a083015260c082015260e001610ca1565b600b60209081526000928352604080842090915290825290208054819061199d90612d24565b80601f01602080910402602001604051908101604052809291908181526020018280546119c990612d24565b8015611a165780601f106119eb57610100808354040283529160200191611a16565b820191906000526020600020905b8154815290600101906020018083116119f957829003601f168201915b5050506001909301549192505060ff1682565b6001600160a01b03891660009081526009602052604090205460ff161515600114611a7f5760405162461bcd60e51b81526004016107b4906020808252600490820152634d494e4560e01b604082015260600190565b60007f0000000000000000000000000000000000000000000000000000000000000000611aaf8a8a8a8a8a611908565b604051602001611ac0929190612cc4565b60408051601f198184030181528282528051602091820120600080855291840180845281905260ff88169284019290925260608301869052608083018590529092509060019060a0016020604051602081039080840390855afa158015611b2b573d6000803e3d6000fd5b5050506020604051035190508a6001600160a01b0316816001600160a01b03161461150c5760405162461bcd60e51b81526004016107b49060208082526004908201526310a6a2a760e11b604082015260600190565b60058054611b8e90612d24565b80601f0160208091040260200160405190810160405280929190818152602001828054611bba90612d24565b8015611c075780601f10611bdc57610100808354040283529160200191611c07565b820191906000526020600020905b815481529060010190602001808311611bea57829003601f168201915b505050505081565b6001600160a01b0386166000908152600d60205260409020548311801590611c46575060008181526014602052604090205460ff16155b611c7b5760405162461bcd60e51b81526020600482015260066024820152654e45494f554d60d01b60448201526064016107b4565b6001600160a01b03851660009081526009602052604090205460ff161515600114611cce5760405162461bcd60e51b8152602060048201526003602482015262594e4d60e81b60448201526064016107b4565b60007f0000000000000000000000000000000000000000000000000000000000000000611cfd88878588610bb8565b604051602001611d0e929190612cc4565b6040516020818303038152906040528051906020012090506000806000611d3486611519565b925092509250600060018583868660405160008152602001604052604051611d78949392919093845260ff9290921660208401526040830152606082015260800190565b6020604051602081039080840390855afa158015611d9a573d6000803e3d6000fd5b505050602060405103519050896001600160a01b0316816001600160a01b031614611dd75760405162461bcd60e51b81526004016107b490612cdf565b6040805180820182528a815260016020808301919091526001600160a01b038e166000908152600b82528381208c82529091529190912081518190611e1c9082612dad565b506020918201516001918201805491151560ff19928316179055600098895260149092526040909720805490911690961790955550505050505050505050565b6001600160a01b0381166000908152600c6020526040902060019081015460ff16151514611eb25760405162461bcd60e51b815260206004820152600360248201526227222160e91b60448201526064016107b4565b604080516060810182526000818301818152825260208083018290526001600160a01b0385168252600c90529190912081518190611ef09082612dad565b50602091909101516001909101805460ff191691151591909117905550565b60008083604051602001611f239190612e88565b60408051601f1981840301815291905280516020909101206000549091506001600160a01b0316611f5484836106f4565b6001600160a01b031614611fa35760405162461bcd60e51b815260206004820152601660248201527524a72b20a624a22fa922a620aca2a92fa9a4a3a722a960511b60448201526064016107b4565b5060019392505050565b6001600160a01b0381166000908152600c602052604090208054606091908190611fd690612d24565b80601f016020809104026020016040519081016040528092919081815260200182805461200290612d24565b801561204f5780601f106120245761010080835404028352916020019161204f565b820191906000526020600020905b81548152906001019060200180831161203257829003601f168201915b5050505050915050919050565b6001600160a01b0384166000908152600d6020526040902054600354148015612094575060008281526014602052604090205460ff16155b6120c95760405162461bcd60e51b815260206004820152600660248201526513915253d55160d21b60448201526064016107b4565b60007f00000000000000000000000000000000000000000000000000000000000000006120fa868686600354610bb8565b60405160200161210b929190612cc4565b604051602081830303815290604052805190602001209050600080600061213185611519565b925092509250600060018583868660405160008152602001604052604051612175949392919093845260ff9290921660208401526040830152606082015260800190565b6020604051602081039080840390855afa158015612197573d6000803e3d6000fd5b5050604051601f1901516004549092506001600160a01b0380841691161490506121d35760405162461bcd60e51b81526004016107b490612cdf565b60408051808201825289815260016020808301919091526001600160a01b038c166000908152600c90915291909120815181906122109082612dad565b506020918201516001918201805491151560ff199283161790556000998a526014909252604090982080549091169097179096555050505050505050565b6001600160a01b0382166000908152600b602090815260408083208484529091529020805460609190819061228290612d24565b80601f01602080910402602001604051908101604052809291908181526020018280546122ae90612d24565b80156122fb5780601f106122d0576101008083540402835291602001916122fb565b820191906000526020600020905b8154815290600101906020018083116122de57829003601f168201915b505050505091505092915050565b60028054611b8e90612d24565b600c6020526000908152604090208054819061199d90612d24565b80356001600160a01b038116811461234857600080fd5b919050565b60006020828403121561235f57600080fd5b61236882612331565b9392505050565b634e487b7160e01b600052604160045260246000fd5b600082601f83011261239657600080fd5b81356001600160401b03808211156123b0576123b061236f565b604051601f8301601f19908116603f011681019082821181831017156123d8576123d861236f565b816040528381528660208588010111156123f157600080fd5b836020870160208301376000602085830101528094505050505092915050565b6000806040838503121561242457600080fd5b82356001600160401b0381111561243a57600080fd5b61244685828601612385565b95602094909401359450505050565b803560ff8116811461234857600080fd5b600080600080600080600080610100898b03121561248357600080fd5b61248c89612331565b975060208901356001600160401b03808211156124a857600080fd5b6124b48c838d01612385565b985060408b01359150808211156124ca57600080fd5b6124d68c838d01612385565b975060608b01359150808211156124ec57600080fd5b506124f98b828c01612385565b9550506080890135935061250f60a08a01612455565b925060c0890135915060e089013590509295985092959890939650565b6000806040838503121561253f57600080fd5b61254883612331565b915060208301356001600160401b0381111561256357600080fd5b61256f85828601612385565b9150509250929050565b60006020828403121561258b57600080fd5b5035919050565b600080600080608085870312156125a857600080fd5b6125b185612331565b935060208501356001600160401b038111156125cc57600080fd5b6125d887828801612385565b949794965050505060408301359260600135919050565b600080600080600060a0868803121561260757600080fd5b61261086612331565b945060208601356001600160401b038082111561262c57600080fd5b61263889838a01612385565b9550604088013591508082111561264e57600080fd5b61265a89838a01612385565b9450606088013591508082111561267057600080fd5b5061267d88828901612385565b95989497509295608001359392505050565b60008060008060008060008060006101208a8c0312156126ae57600080fd5b6126b78a612331565b98506126c560208b01612331565b975060408a01356001600160401b03808211156126e157600080fd5b6126ed8d838e01612385565b985060608c013591508082111561270357600080fd5b61270f8d838e01612385565b975060808c013591508082111561272557600080fd5b506127328c828d01612385565b95505060a08a0135935061274860c08b01612455565b925060e08a013591506101008a013590509295985092959850929598565b600080600080600080600080610100898b03121561278357600080fd5b61278c89612331565b975061279a60208a01612331565b96506040890135955060608901356001600160401b03808211156127bd57600080fd5b6127c98c838d01612385565b965060808b01359150808211156127df57600080fd5b6127eb8c838d01612385565b955060a08b013591508082111561280157600080fd5b61280d8c838d01612385565b945060c08b013591508082111561282357600080fd5b61282f8c838d01612385565b935060e08b013591508082111561284557600080fd5b506128528b828c01612385565b9150509295985092959890939650565b60006020828403121561287457600080fd5b81356001600160401b0381111561288a57600080fd5b61289684828501612385565b949350505050565b600080600080600060a086880312156128b657600080fd5b8535945060208601356001600160401b03808211156128d457600080fd5b6128e089838a01612385565b95506128ee60408901612331565b9450606088013591508082111561290457600080fd5b61291089838a01612385565b9350608088013591508082111561292657600080fd5b5061293388828901612385565b9150509295509295909350565b6000806040838503121561295357600080fd5b61295c83612331565b946020939093013593505050565b60005b8381101561298557818101518382015260200161296d565b50506000910152565b600081518084526129a681602086016020860161296a565b601f01601f19169290920160200192915050565b6040815260006129cd604083018561298e565b905082151560208301529392505050565b60008060008060008060008060006101208a8c0312156129fd57600080fd5b612a068a612331565b985060208a0135975060408a01356001600160401b0380821115612a2957600080fd5b612a358d838e01612385565b9850612a4360608d01612331565b975060808c0135915080821115612a5957600080fd5b612a658d838e01612385565b965060a08c0135915080821115612a7b57600080fd5b50612a888c828d01612385565b94505061274860c08b01612455565b602081526000612368602083018461298e565b60008060008060008060c08789031215612ac357600080fd5b612acc87612331565b9550612ada60208801612331565b945060408701356001600160401b0380821115612af657600080fd5b612b028a838b01612385565b9550606089013594506080890135915080821115612b1f57600080fd5b50612b2c89828a01612385565b92505060a087013590509295509295509295565b60008060408385031215612b5357600080fd5b82356001600160401b0380821115612b6a57600080fd5b612b7686838701612385565b93506020850135915080821115612b8c57600080fd5b5061256f85828601612385565b60008060008060808587031215612baf57600080fd5b612bb885612331565b935060208501356001600160401b0380821115612bd457600080fd5b612be088838901612385565b9450604087013593506060870135915080821115612bfd57600080fd5b50612c0a87828801612385565b91505092959194509250565b60208082526003908201526259415360e81b604082015260600190565b60208082526003908201526259414760e81b604082015260600190565b60208082526003908201526259414d60e81b604082015260600190565b6020808252600390820152620b282960eb1b604082015260600190565b6020808252600390820152624f434d60e81b604082015260600190565b60208082526003908201526249415560e81b604082015260600190565b61190160f01b81526002810192909252602282015260420190565b6020808252600490820152632153494760e01b604082015260600190565b600060018201612d1d57634e487b7160e01b600052601160045260246000fd5b5060010190565b600181811c90821680612d3857607f821691505b602082108103612d5857634e487b7160e01b600052602260045260246000fd5b50919050565b601f821115612da857600081815260208120601f850160051c81016020861015612d855750805b601f850160051c820191505b81811015612da457828155600101612d91565b5050505b505050565b81516001600160401b03811115612dc657612dc661236f565b612dda81612dd48454612d24565b84612d5e565b602080601f831160018114612e0f5760008415612df75750858301515b600019600386901b1c1916600185901b178555612da4565b600085815260208120601f198616915b82811015612e3e57888601518255948401946001909101908401612e1f565b5085821015612e5c5787850151600019600388901b60f8161c191681555b5050505050600190811b01905550565b60008251612e7e81846020870161296a565b9190910192915050565b7f19457468657265756d205369676e6564204d6573736167653a0a353900000000815260008251612ec081601c85016020870161296a565b91909101601c019291505056fe7369676e53747564656e742875696e743235362063757272656e7453656d4e756d2c737472696e6720726563656970744e6f2c6164647265737320737475642c737472696e6720697066734369642c737472696e67206465677265654970667329456e726f6c6c2861646472657373206163636f756e742c737472696e67205f7365637265744b65795f312c737472696e67205f7365637265744b65795f322c737472696e6720726f6c652c75696e7432353620756e697175654964297570646174652861646472657373206163636f756e742c737472696e67206369642c75696e7432353620756e6971756549642c75696e743235362073656d4e6f29a26469706673582212202f7aa2463d117724a19e730064189fe239289f6c604e525dc7f2d5ee3a20092364736f6c63430008130033437265617465476f7665726e616e636528616464726573732077616c6c65742c737472696e6720676f7665726e616e63654e616d652c75696e7432353620746f74616c456e644578616d696e6174696f6e2c737472696e672062617463682c75696e74323536206e6f6e6365732c616464726573732072656c6179657229a2646970667358221220842b6999f3ae90f7460a63218e91a184f8490fae7ab479fe68690a58c1cc865064736f6c6343000813003343726561746528616464726573732077616c6c65742c737472696e6720756e69766572736974794e616d6529a26469706673582212201f9cf33f303a2e944538bcaadfb33dc3b57c84bf92a74585dc393296c50a84c864736f6c63430008130033",
  "immutableReferences": {
    "12": [
      {
        "length": 32,
        "start": 551
      }
    ]
  },
  "source": "// SPDX-License-Identifier: GPL-3.0\n\npragma solidity >=0.7.0 <0.9.0;\nimport \"./GovernanceFactory.sol\";\ncontract BaseContract{\n    GovernanceFactory[] public governanceFactory;\n    mapping(address=>address) public ownedFactory;\n    bytes32 internal immutable INITIAL_DOMAIN_SEPARATOR;\n\n    constructor(){\nINITIAL_DOMAIN_SEPARATOR = hashDomain(\"BASE_FACTORY\",\"1\",block.chainid,address(this));\n\n    }\n   function hash(address wallet,string memory _universityName) public pure returns(bytes32){\nreturn (keccak256(abi.encode(\nkeccak256(bytes(\"Create(address wallet,string universityName)\")),\nwallet,\nkeccak256(bytes(_universityName))\n)));\n   }\n\n    function createMyOwnFactory(string memory _universityName,address _owner,uint8 v, bytes32 r, bytes32 s)public {\n        require(ownedFactory[_owner] == address(0),\"you already created\");\n        // hasing the initial_domain_separator and messages(_owner,_governanceName...) for verification whether they sign\n    bytes32 digest = keccak256(abi.encodePacked(\n            \"\\x19\\x01\",\n            INITIAL_DOMAIN_SEPARATOR,\n            hash(_owner,_universityName)\n        ));\n// recovering the public address of the owner by splitted signature (signed by owner) and digested hash\naddress recoveredAddress = ecrecover(digest, v, r, s);\n//checking whether the recovered address is equal to owner(signer)\nrequire(recoveredAddress == _owner,\"INVALID_SIGNER\");\n// creating Factory contract\n        GovernanceFactory _governance = new GovernanceFactory(_universityName);\n        governanceFactory.push(_governance);\n        ownedFactory[_owner] = address(_governance);\n    }\n\nfunction getContractAdd(address _owner)public view returns(address){\n    return ownedFactory[_owner];\n}\n       // returning blockchain id\nfunction returnChainId()public view returns(uint){\n    return block.chainid;\n}\n\nfunction hashDomain(string memory name,string memory version,uint chainId,address verifyingContract) private pure returns (bytes32) {\n        return keccak256(abi.encode(\n            keccak256(\"EIP712Domain(string name,string version,uint256 chainId,address verifyingContract)\"),\n            keccak256(bytes(name)),\n            keccak256(bytes(version)),\n            chainId,\n            verifyingContract\n        ));\n    }\n\n}\n\n//0xE79D0c9E0235BF2D50Fd3285F1CD5dBCAA07A31c",
  "sourcePath": "/home/lenovo/Desktop/souldem/contracts/contracts/BaseContract.sol",
  "compiler": {
    "name": "solc",
    "version": "0.8.19+commit.7dd6d404.Emscripten.clang"
  },
  "schemaVersion": "3.4.16",
  "updatedAt": "2024-08-11T12:30:58.360Z",
  "networkType": "ethereum",
  "devdoc": {
    "kind": "dev",
    "methods": {},
    "version": 1
  },
  "userdoc": {
    "kind": "user",
    "methods": {},
    "version": 1
  }
}