{
  "contractName": "Governance",
  "abi": [
    {
      "inputs": [
        {
          "internalType": "string",
          "name": "_governanceName",
          "type": "string"
        },
        {
          "internalType": "uint256",
          "name": "_totalEndExamination",
          "type": "uint256"
        },
        {
          "internalType": "address",
          "name": "_owner",
          "type": "address"
        },
        {
          "internalType": "string",
          "name": "_batch",
          "type": "string"
        },
        {
          "internalType": "address",
          "name": "_relayer",
          "type": "address"
        }
      ],
      "stateMutability": "nonpayable",
      "type": "constructor"
    },
    {
      "inputs": [],
      "name": "batch",
      "outputs": [
        {
          "internalType": "string",
          "name": "",
          "type": "string"
        }
      ],
      "stateMutability": "view",
      "type": "function",
      "constant": true
    },
    {
      "inputs": [],
      "name": "contractAddress",
      "outputs": [
        {
          "internalType": "address",
          "name": "",
          "type": "address"
        }
      ],
      "stateMutability": "view",
      "type": "function",
      "constant": true
    },
    {
      "inputs": [
        {
          "internalType": "address",
          "name": "",
          "type": "address"
        }
      ],
      "name": "currentSemester",
      "outputs": [
        {
          "internalType": "uint256",
          "name": "",
          "type": "uint256"
        }
      ],
      "stateMutability": "view",
      "type": "function",
      "constant": true
    },
    {
      "inputs": [
        {
          "internalType": "address",
          "name": "",
          "type": "address"
        }
      ],
      "name": "degreeCert",
      "outputs": [
        {
          "internalType": "string",
          "name": "ipfsCID",
          "type": "string"
        },
        {
          "internalType": "bool",
          "name": "status",
          "type": "bool"
        }
      ],
      "stateMutability": "view",
      "type": "function",
      "constant": true
    },
    {
      "inputs": [],
      "name": "governanceName",
      "outputs": [
        {
          "internalType": "string",
          "name": "",
          "type": "string"
        }
      ],
      "stateMutability": "view",
      "type": "function",
      "constant": true
    },
    {
      "inputs": [
        {
          "internalType": "address",
          "name": "",
          "type": "address"
        }
      ],
      "name": "grader",
      "outputs": [
        {
          "internalType": "bool",
          "name": "",
          "type": "bool"
        }
      ],
      "stateMutability": "view",
      "type": "function",
      "constant": true
    },
    {
      "inputs": [
        {
          "internalType": "uint256",
          "name": "",
          "type": "uint256"
        }
      ],
      "name": "graderNonce",
      "outputs": [
        {
          "internalType": "address",
          "name": "",
          "type": "address"
        }
      ],
      "stateMutability": "view",
      "type": "function",
      "constant": true
    },
    {
      "inputs": [],
      "name": "graderNonceCount",
      "outputs": [
        {
          "internalType": "uint256",
          "name": "",
          "type": "uint256"
        }
      ],
      "stateMutability": "view",
      "type": "function",
      "constant": true
    },
    {
      "inputs": [
        {
          "internalType": "address",
          "name": "",
          "type": "address"
        }
      ],
      "name": "hod",
      "outputs": [
        {
          "internalType": "bool",
          "name": "",
          "type": "bool"
        }
      ],
      "stateMutability": "view",
      "type": "function",
      "constant": true
    },
    {
      "inputs": [
        {
          "internalType": "uint256",
          "name": "",
          "type": "uint256"
        }
      ],
      "name": "hodNonce",
      "outputs": [
        {
          "internalType": "address",
          "name": "",
          "type": "address"
        }
      ],
      "stateMutability": "view",
      "type": "function",
      "constant": true
    },
    {
      "inputs": [
        {
          "internalType": "string",
          "name": "",
          "type": "string"
        }
      ],
      "name": "isUsedReceipt",
      "outputs": [
        {
          "internalType": "bool",
          "name": "",
          "type": "bool"
        }
      ],
      "stateMutability": "view",
      "type": "function",
      "constant": true
    },
    {
      "inputs": [
        {
          "internalType": "uint256",
          "name": "",
          "type": "uint256"
        }
      ],
      "name": "mentorNonce",
      "outputs": [
        {
          "internalType": "address",
          "name": "",
          "type": "address"
        }
      ],
      "stateMutability": "view",
      "type": "function",
      "constant": true
    },
    {
      "inputs": [
        {
          "internalType": "address",
          "name": "",
          "type": "address"
        }
      ],
      "name": "mentors",
      "outputs": [
        {
          "internalType": "bool",
          "name": "",
          "type": "bool"
        }
      ],
      "stateMutability": "view",
      "type": "function",
      "constant": true
    },
    {
      "inputs": [],
      "name": "nonce",
      "outputs": [
        {
          "internalType": "uint256",
          "name": "",
          "type": "uint256"
        }
      ],
      "stateMutability": "view",
      "type": "function",
      "constant": true
    },
    {
      "inputs": [],
      "name": "owner",
      "outputs": [
        {
          "internalType": "address",
          "name": "",
          "type": "address"
        }
      ],
      "stateMutability": "view",
      "type": "function",
      "constant": true
    },
    {
      "inputs": [],
      "name": "relayer",
      "outputs": [
        {
          "internalType": "address",
          "name": "",
          "type": "address"
        }
      ],
      "stateMutability": "view",
      "type": "function",
      "constant": true
    },
    {
      "inputs": [
        {
          "internalType": "address",
          "name": "",
          "type": "address"
        },
        {
          "internalType": "uint256",
          "name": "",
          "type": "uint256"
        }
      ],
      "name": "semCertIssuance",
      "outputs": [
        {
          "internalType": "string",
          "name": "ipfsCID",
          "type": "string"
        },
        {
          "internalType": "bool",
          "name": "status",
          "type": "bool"
        }
      ],
      "stateMutability": "view",
      "type": "function",
      "constant": true
    },
    {
      "inputs": [
        {
          "internalType": "address",
          "name": "",
          "type": "address"
        }
      ],
      "name": "student",
      "outputs": [
        {
          "internalType": "bool",
          "name": "",
          "type": "bool"
        }
      ],
      "stateMutability": "view",
      "type": "function",
      "constant": true
    },
    {
      "inputs": [
        {
          "internalType": "uint256",
          "name": "",
          "type": "uint256"
        }
      ],
      "name": "studentNonce",
      "outputs": [
        {
          "internalType": "address",
          "name": "",
          "type": "address"
        }
      ],
      "stateMutability": "view",
      "type": "function",
      "constant": true
    },
    {
      "inputs": [],
      "name": "totalEndExamination",
      "outputs": [
        {
          "internalType": "uint256",
          "name": "",
          "type": "uint256"
        }
      ],
      "stateMutability": "view",
      "type": "function",
      "constant": true
    },
    {
      "inputs": [
        {
          "internalType": "address",
          "name": "add",
          "type": "address"
        },
        {
          "internalType": "string",
          "name": "_secretKey_1",
          "type": "string"
        },
        {
          "internalType": "string",
          "name": "_secretKey_2",
          "type": "string"
        },
        {
          "internalType": "string",
          "name": "role",
          "type": "string"
        },
        {
          "internalType": "uint256",
          "name": "uniqueId",
          "type": "uint256"
        }
      ],
      "name": "hash",
      "outputs": [
        {
          "internalType": "bytes32",
          "name": "",
          "type": "bytes32"
        }
      ],
      "stateMutability": "pure",
      "type": "function",
      "constant": true
    },
    {
      "inputs": [
        {
          "internalType": "address",
          "name": "graderAddress",
          "type": "address"
        },
        {
          "internalType": "string",
          "name": "_secretKey_1",
          "type": "string"
        },
        {
          "internalType": "string",
          "name": "_secretKey_2",
          "type": "string"
        },
        {
          "internalType": "string",
          "name": "role",
          "type": "string"
        },
        {
          "internalType": "uint256",
          "name": "uniqueId",
          "type": "uint256"
        },
        {
          "internalType": "uint8",
          "name": "v",
          "type": "uint8"
        },
        {
          "internalType": "bytes32",
          "name": "r",
          "type": "bytes32"
        },
        {
          "internalType": "bytes32",
          "name": "s",
          "type": "bytes32"
        }
      ],
      "name": "becomeGrader",
      "outputs": [],
      "stateMutability": "nonpayable",
      "type": "function"
    },
    {
      "inputs": [
        {
          "internalType": "address",
          "name": "hodAddress",
          "type": "address"
        },
        {
          "internalType": "string",
          "name": "_secretKey_1",
          "type": "string"
        },
        {
          "internalType": "string",
          "name": "_secretKey_2",
          "type": "string"
        },
        {
          "internalType": "string",
          "name": "role",
          "type": "string"
        },
        {
          "internalType": "uint256",
          "name": "uniqueId",
          "type": "uint256"
        },
        {
          "internalType": "uint8",
          "name": "v",
          "type": "uint8"
        },
        {
          "internalType": "bytes32",
          "name": "r",
          "type": "bytes32"
        },
        {
          "internalType": "bytes32",
          "name": "s",
          "type": "bytes32"
        }
      ],
      "name": "becomeHod",
      "outputs": [],
      "stateMutability": "nonpayable",
      "type": "function"
    },
    {
      "inputs": [
        {
          "internalType": "address",
          "name": "studentAddress",
          "type": "address"
        },
        {
          "internalType": "address",
          "name": "signer",
          "type": "address"
        },
        {
          "internalType": "string",
          "name": "_secretKey_1",
          "type": "string"
        },
        {
          "internalType": "string",
          "name": "_secretKey_2",
          "type": "string"
        },
        {
          "internalType": "string",
          "name": "role",
          "type": "string"
        },
        {
          "internalType": "uint256",
          "name": "uniqueId",
          "type": "uint256"
        },
        {
          "internalType": "uint8",
          "name": "v",
          "type": "uint8"
        },
        {
          "internalType": "bytes32",
          "name": "r",
          "type": "bytes32"
        },
        {
          "internalType": "bytes32",
          "name": "s",
          "type": "bytes32"
        }
      ],
      "name": "becomeStudent",
      "outputs": [],
      "stateMutability": "nonpayable",
      "type": "function"
    },
    {
      "inputs": [
        {
          "internalType": "address",
          "name": "mentorAddress",
          "type": "address"
        },
        {
          "internalType": "address",
          "name": "signer",
          "type": "address"
        },
        {
          "internalType": "string",
          "name": "_secretKey_1",
          "type": "string"
        },
        {
          "internalType": "string",
          "name": "_secretKey_2",
          "type": "string"
        },
        {
          "internalType": "string",
          "name": "role",
          "type": "string"
        },
        {
          "internalType": "uint256",
          "name": "uniqueId",
          "type": "uint256"
        },
        {
          "internalType": "uint8",
          "name": "v",
          "type": "uint8"
        },
        {
          "internalType": "bytes32",
          "name": "r",
          "type": "bytes32"
        },
        {
          "internalType": "bytes32",
          "name": "s",
          "type": "bytes32"
        }
      ],
      "name": "becomeMentor",
      "outputs": [],
      "stateMutability": "nonpayable",
      "type": "function"
    },
    {
      "inputs": [
        {
          "internalType": "bytes",
          "name": "_signature",
          "type": "bytes"
        },
        {
          "internalType": "bytes32",
          "name": "_ethHash",
          "type": "bytes32"
        }
      ],
      "name": "recover",
      "outputs": [
        {
          "internalType": "address",
          "name": "",
          "type": "address"
        }
      ],
      "stateMutability": "pure",
      "type": "function",
      "constant": true
    },
    {
      "inputs": [
        {
          "internalType": "bytes",
          "name": "_signature",
          "type": "bytes"
        }
      ],
      "name": "split",
      "outputs": [
        {
          "internalType": "bytes32",
          "name": "r",
          "type": "bytes32"
        },
        {
          "internalType": "bytes32",
          "name": "s",
          "type": "bytes32"
        },
        {
          "internalType": "uint8",
          "name": "v",
          "type": "uint8"
        }
      ],
      "stateMutability": "pure",
      "type": "function",
      "constant": true
    },
    {
      "inputs": [
        {
          "internalType": "address",
          "name": "_add",
          "type": "address"
        }
      ],
      "name": "isStudent",
      "outputs": [
        {
          "internalType": "bool",
          "name": "",
          "type": "bool"
        }
      ],
      "stateMutability": "view",
      "type": "function",
      "constant": true
    },
    {
      "inputs": [
        {
          "internalType": "address",
          "name": "_add",
          "type": "address"
        }
      ],
      "name": "isGrader",
      "outputs": [
        {
          "internalType": "bool",
          "name": "",
          "type": "bool"
        }
      ],
      "stateMutability": "view",
      "type": "function",
      "constant": true
    },
    {
      "inputs": [
        {
          "internalType": "address",
          "name": "_add",
          "type": "address"
        }
      ],
      "name": "isMentor",
      "outputs": [
        {
          "internalType": "bool",
          "name": "",
          "type": "bool"
        }
      ],
      "stateMutability": "view",
      "type": "function",
      "constant": true
    },
    {
      "inputs": [
        {
          "internalType": "address",
          "name": "_add",
          "type": "address"
        }
      ],
      "name": "isHod",
      "outputs": [
        {
          "internalType": "bool",
          "name": "",
          "type": "bool"
        }
      ],
      "stateMutability": "view",
      "type": "function",
      "constant": true
    },
    {
      "inputs": [
        {
          "internalType": "string",
          "name": "_ipfsCID",
          "type": "string"
        },
        {
          "internalType": "bytes",
          "name": "signature",
          "type": "bytes"
        }
      ],
      "name": "isVerifyByrelayer",
      "outputs": [
        {
          "internalType": "bool",
          "name": "",
          "type": "bool"
        }
      ],
      "stateMutability": "view",
      "type": "function",
      "constant": true
    },
    {
      "inputs": [
        {
          "internalType": "uint256",
          "name": "currentSemNum",
          "type": "uint256"
        },
        {
          "internalType": "string",
          "name": "receiptNo",
          "type": "string"
        },
        {
          "internalType": "address",
          "name": "stud",
          "type": "address"
        },
        {
          "internalType": "string",
          "name": "ipfsCid",
          "type": "string"
        },
        {
          "internalType": "string",
          "name": "degreeIpfs",
          "type": "string"
        }
      ],
      "name": "mentorSignStudent",
      "outputs": [
        {
          "internalType": "bytes32",
          "name": "",
          "type": "bytes32"
        }
      ],
      "stateMutability": "pure",
      "type": "function",
      "constant": true
    },
    {
      "inputs": [
        {
          "internalType": "address",
          "name": "mentor",
          "type": "address"
        },
        {
          "internalType": "uint256",
          "name": "currentSemNum",
          "type": "uint256"
        },
        {
          "internalType": "string",
          "name": "receiptNo",
          "type": "string"
        },
        {
          "internalType": "address",
          "name": "_studentAdd",
          "type": "address"
        },
        {
          "internalType": "string",
          "name": "cid",
          "type": "string"
        },
        {
          "internalType": "string",
          "name": "degreeCid",
          "type": "string"
        },
        {
          "internalType": "uint8",
          "name": "v",
          "type": "uint8"
        },
        {
          "internalType": "bytes32",
          "name": "r",
          "type": "bytes32"
        },
        {
          "internalType": "bytes32",
          "name": "s",
          "type": "bytes32"
        }
      ],
      "name": "isMentorSign",
      "outputs": [],
      "stateMutability": "view",
      "type": "function",
      "constant": true
    },
    {
      "inputs": [
        {
          "internalType": "address",
          "name": "_student",
          "type": "address"
        },
        {
          "internalType": "address",
          "name": "mentor",
          "type": "address"
        },
        {
          "internalType": "uint256",
          "name": "currentSemNum",
          "type": "uint256"
        },
        {
          "internalType": "string",
          "name": "receiptNo",
          "type": "string"
        },
        {
          "internalType": "bytes",
          "name": "mentorSignature",
          "type": "bytes"
        },
        {
          "internalType": "string",
          "name": "_ipfsCID",
          "type": "string"
        },
        {
          "internalType": "bytes",
          "name": "relayerSig",
          "type": "bytes"
        },
        {
          "internalType": "string",
          "name": "degreeIpfs",
          "type": "string"
        }
      ],
      "name": "mintCert",
      "outputs": [],
      "stateMutability": "nonpayable",
      "type": "function"
    },
    {
      "inputs": [
        {
          "internalType": "address",
          "name": "_student",
          "type": "address"
        },
        {
          "internalType": "string",
          "name": "_ipfsCID",
          "type": "string"
        }
      ],
      "name": "mintDegreeCert",
      "outputs": [],
      "stateMutability": "nonpayable",
      "type": "function"
    },
    {
      "inputs": [
        {
          "internalType": "address",
          "name": "_stud",
          "type": "address"
        },
        {
          "internalType": "uint256",
          "name": "sem",
          "type": "uint256"
        }
      ],
      "name": "getSemMarkSheet",
      "outputs": [
        {
          "internalType": "string",
          "name": "",
          "type": "string"
        }
      ],
      "stateMutability": "view",
      "type": "function",
      "constant": true
    },
    {
      "inputs": [
        {
          "internalType": "address",
          "name": "_stud",
          "type": "address"
        }
      ],
      "name": "getDegree",
      "outputs": [
        {
          "internalType": "string",
          "name": "",
          "type": "string"
        }
      ],
      "stateMutability": "view",
      "type": "function",
      "constant": true
    },
    {
      "inputs": [
        {
          "internalType": "address",
          "name": "_add",
          "type": "address"
        },
        {
          "internalType": "string",
          "name": "_cid",
          "type": "string"
        },
        {
          "internalType": "uint256",
          "name": "uniqueId",
          "type": "uint256"
        },
        {
          "internalType": "uint256",
          "name": "semNo",
          "type": "uint256"
        }
      ],
      "name": "hashUpd",
      "outputs": [
        {
          "internalType": "bytes32",
          "name": "",
          "type": "bytes32"
        }
      ],
      "stateMutability": "pure",
      "type": "function",
      "constant": true
    },
    {
      "inputs": [
        {
          "internalType": "address",
          "name": "_student",
          "type": "address"
        },
        {
          "internalType": "address",
          "name": "_mentor",
          "type": "address"
        },
        {
          "internalType": "string",
          "name": "newIpfsCid",
          "type": "string"
        },
        {
          "internalType": "uint256",
          "name": "semesterNum",
          "type": "uint256"
        },
        {
          "internalType": "bytes",
          "name": "sign",
          "type": "bytes"
        },
        {
          "internalType": "uint256",
          "name": "uniqueId",
          "type": "uint256"
        }
      ],
      "name": "editSemMarkSheet",
      "outputs": [],
      "stateMutability": "nonpayable",
      "type": "function"
    },
    {
      "inputs": [
        {
          "internalType": "address",
          "name": "_student",
          "type": "address"
        },
        {
          "internalType": "string",
          "name": "newIpfsCid",
          "type": "string"
        },
        {
          "internalType": "uint256",
          "name": "uniqueId",
          "type": "uint256"
        },
        {
          "internalType": "bytes",
          "name": "sign",
          "type": "bytes"
        }
      ],
      "name": "editDegreeCert",
      "outputs": [],
      "stateMutability": "nonpayable",
      "type": "function"
    },
    {
      "inputs": [
        {
          "internalType": "address",
          "name": "_student",
          "type": "address"
        }
      ],
      "name": "burnDegreeCert",
      "outputs": [],
      "stateMutability": "nonpayable",
      "type": "function"
    },
    {
      "inputs": [],
      "name": "returnChainId",
      "outputs": [
        {
          "internalType": "uint256",
          "name": "",
          "type": "uint256"
        }
      ],
      "stateMutability": "view",
      "type": "function",
      "constant": true
    }
  ],
  "bytecode": "0x60c06040526000600a553480156200001657600080fd5b506040516200347638038062003476833981016040819052620000399162000234565b600180546001600160a01b0319163017905560026200005986826200035c565b506003849055600480546001600160a01b0319166001600160a01b03851617905560056200008883826200035c565b50466080818152600080546001600160a01b0319166001600160a01b03851617905560408051808201825260018152603160f81b60209182015288518982012082517f8b73c3c69bb8fe3d512ecc4cf759cc79239f7b179b0ffacaa9a75d522b39400f81840152808401919091527fc89efdaa54c0f20c7adf612882df0950f5a951637e0307cdcb4c672f298b8bc66060820152928301939093523060a0808401919091528151808403909101815260c09092019052805191012060a05250620004289350505050565b634e487b7160e01b600052604160045260246000fd5b600082601f8301126200017a57600080fd5b81516001600160401b038082111562000197576200019762000152565b604051601f8301601f19908116603f01168101908282118183101715620001c257620001c262000152565b81604052838152602092508683858801011115620001df57600080fd5b600091505b83821015620002035785820183015181830184015290820190620001e4565b600093810190920192909252949350505050565b80516001600160a01b03811681146200022f57600080fd5b919050565b600080600080600060a086880312156200024d57600080fd5b85516001600160401b03808211156200026557600080fd5b6200027389838a0162000168565b9650602088015195506200028a6040890162000217565b94506060880151915080821115620002a157600080fd5b50620002b08882890162000168565b925050620002c16080870162000217565b90509295509295909350565b600181811c90821680620002e257607f821691505b6020821081036200030357634e487b7160e01b600052602260045260246000fd5b50919050565b601f8211156200035757600081815260208120601f850160051c81016020861015620003325750805b601f850160051c820191505b8181101562000353578281556001016200033e565b5050505b505050565b81516001600160401b0381111562000378576200037862000152565b6200039081620003898454620002cd565b8462000309565b602080601f831160018114620003c85760008415620003af5750858301515b600019600386901b1c1916600185901b17855562000353565b600085815260208120601f198616915b82811015620003f957888601518255948401946001909101908401620003d8565b5085821015620004185787850151600019600388901b60f8161c191681555b5050505050600190811b01905550565b60805160a051613001620004756000396000818161095301528181610eec0152818161123b015281816117a101528181611a8301528181611cd201526120cd0152600050506130016000f3fe608060405234801561001057600080fd5b50600436106102695760003560e01c80638406c07911610151578063d421bc23116100c3578063ee82cf4011610087578063ee82cf4014610662578063eed4ea8f14610675578063efb5473614610698578063f0c7a626146106a0578063f3e27898146106b3578063f6b4dfb4146106e157600080fd5b8063d421bc23146105e4578063d6d08dca146105ed578063daadd00f14610600578063dc52268914610623578063de5f88701461064f57600080fd5b8063affed0e011610115578063affed0e014610579578063b064405814610582578063b4409e5114610595578063b7fb707b1461059e578063ca2e74d8146105be578063cf4f1b9c146105d157600080fd5b80638406c0791461050a5780638da5cb5b1461051d578063a934a0e214610530578063aedeccc914610551578063af7135661461056457600080fd5b80632f5b663f116101ea57806365d894e9116101ae57806365d894e914610435578063669451851461046657806369823fd51461048f5780637cd308fa146104a2578063809638b2146104cb57806382f7d392146104de57600080fd5b80632f5b663f146103bd57806345dcde43146103d05780634d8b93b2146103e35780635e2ab79f146103f65780635e98a1451461040957600080fd5b806325a928221161023157806325a928221461032257806328ad98b3146103355780632a6ec7401461035e5780632d1272ea146103875780632f2aa63c146103aa57600080fd5b806309dbdf161461026e5780630beae552146102af57806316b3b3db146102d25780631aad75c5146102e25780631adb9ac51461030d575b600080fd5b61029a61027c36600461234d565b6001600160a01b031660009081526007602052604090205460ff1690565b60405190151581526020015b60405180910390f35b61029a6102bd36600461234d565b60086020526000908152604090205460ff1681565b465b6040519081526020016102a6565b6102f56102f0366004612411565b6106f4565b6040516001600160a01b0390911681526020016102a6565b61032061031b366004612466565b610773565b005b61032061033036600461252c565b610ab4565b6102f5610343366004612579565b6010602052600090815260409020546001600160a01b031681565b6102f561036c366004612579565b6012602052600090815260409020546001600160a01b031681565b61029a61039536600461234d565b60076020526000908152604090205460ff1681565b6102d46103b8366004612592565b610bb8565b6102d46103cb3660046125ef565b610c33565b6103206103de36600461268f565b610cc2565b6103206103f1366004612466565b611067565b610320610404366004612766565b611389565b61029a61041736600461234d565b6001600160a01b031660009081526009602052604090205460ff1690565b610448610443366004612862565b611519565b60408051938452602084019290925260ff16908201526060016102a6565b6102f5610474366004612579565b6013602052600090815260409020546001600160a01b031681565b61032061049d36600461268f565b611576565b6102f56104b0366004612579565b6011602052600090815260409020546001600160a01b031681565b6102d46104d936600461289e565b611908565b61029a6104ec36600461234d565b6001600160a01b031660009081526006602052604090205460ff1690565b6000546102f5906001600160a01b031681565b6004546102f5906001600160a01b031681565b61054361053e366004612940565b611977565b6040516102a69291906129ba565b61032061055f3660046129de565b611a29565b61056c611b81565b6040516102a69190612a97565b6102d4600f5481565b610320610590366004612aaa565b611c0f565b6102d4600a5481565b6102d46105ac36600461234d565b600d6020526000908152604090205481565b6103206105cc36600461234d565b611e5c565b61029a6105df366004612b40565b611f0f565b6102d460035481565b61056c6105fb36600461234d565b611fad565b61029a61060e36600461234d565b60066020526000908152604090205460ff1681565b61029a61063136600461234d565b6001600160a01b031660009081526008602052604090205460ff1690565b61032061065d366004612b99565b61205c565b61056c610670366004612940565b61224e565b61029a61068336600461234d565b60096020526000908152604090205460ff1681565b61056c612309565b6105436106ae36600461234d565b612316565b61029a6106c1366004612862565b8051602081830181018051600e8252928201919093012091525460ff1681565b6001546102f5906001600160a01b031681565b60008060008061070386611519565b6040805160008152602081018083528a905260ff8316918101919091526060810184905260808101839052929550909350915060019060a0016020604051602081039080840390855afa15801561075e573d6000803e3d6000fd5b5050604051601f190151979650505050505050565b6001600160a01b0388166000908152600660205260409020548890859060ff1615156001036107bd5760405162461bcd60e51b81526004016107b490612c16565b60405180910390fd5b6001600160a01b03821660009081526007602052604090205460ff1615156001036107fa5760405162461bcd60e51b81526004016107b490612c33565b6001600160a01b03821660009081526009602052604090205460ff1615156001036108375760405162461bcd60e51b81526004016107b490612c50565b6001600160a01b03821660009081526008602052604090205460ff1615156001036108745760405162461bcd60e51b81526004016107b490612c6d565b6004546001600160a01b038084169116036108a15760405162461bcd60e51b81526004016107b490612c8a565b60008181526014602052604090205460ff1615156001036108d45760405162461bcd60e51b81526004016107b490612ca7565b60408051808201909152600681526533b930b232b960d11b6020918201528751908801207fc74177e3d3150a5423bd87048e7b95e2a2b5332b67459e376789a2e00239b0a41461094f5760405162461bcd60e51b81526004016107b49060208082526004908201526347534f4160e01b604082015260600190565b60007f000000000000000000000000000000000000000000000000000000000000000061097f8c8c8c8c8c610c33565b604051602001610990929190612cc4565b60408051601f198184030181528282528051602091820120600080855291840180845281905260ff8a169284019290925260608301889052608083018790529092509060019060a0016020604051602081039080840390855afa1580156109fb573d6000803e3d6000fd5b5050604051601f1901516004549092506001600160a01b038084169116149050610a375760405162461bcd60e51b81526004016107b490612cdf565b6001600160a01b038c1660008181526007602090815260408083208054600160ff1991821681179092558d85526014845282852080549091169091179055600f805484526010909252822080546001600160a01b03191690931790925581549190610aa183612cfd565b9190505550505050505050505050505050565b6001600160a01b03821660009081526006602052604090205460ff161515600114610b0c5760405162461bcd60e51b81526020600482015260086024820152672159414e4852544d60c01b60448201526064016107b4565b6003546001600160a01b0383166000908152600d602052604090205414610b5b5760405162461bcd60e51b81526020600482015260036024820152624e454d60e81b60448201526064016107b4565b60408051808201825282815260016020808301919091526001600160a01b0385166000908152600c9091529190912081518190610b989082612dad565b50602091909101516001909101805460ff19169115159190911790555050565b6000604051806080016040528060418152602001612f8b60419139805160209182012085518683012060408051938401929092526001600160a01b0388169183019190915260608201526080810184905260a0810183905260c001604051602081830303815290604052805190602001209050949350505050565b60006040518060800160405280605c8152602001612f2f605c9139805160209182012086518783012086518784012086518785012060408051958601949094526001600160a01b038b16938501939093526060840191909152608083015260a082015260c0810183905260e0015b60405160208183030381529060405280519060200120905095945050505050565b6001600160a01b0389166000908152600660205260409020548990859060ff161515600103610d035760405162461bcd60e51b81526004016107b490612c16565b6001600160a01b03821660009081526007602052604090205460ff161515600103610d405760405162461bcd60e51b81526004016107b490612c33565b6001600160a01b03821660009081526009602052604090205460ff161515600103610d7d5760405162461bcd60e51b81526004016107b490612c50565b6001600160a01b03821660009081526008602052604090205460ff161515600103610dba5760405162461bcd60e51b81526004016107b490612c6d565b6004546001600160a01b03808416911603610de75760405162461bcd60e51b81526004016107b490612c8a565b60008181526014602052604090205460ff161515600103610e1a5760405162461bcd60e51b81526004016107b490612ca7565b60408051808201909152600681526536b2b73a37b960d11b6020918201528751908801207f23cced0a949a432105f92942538d0d91647a5743f1a3d4ac0eb59081a606193614610e955760405162461bcd60e51b81526004016107b4906020808252600490820152634d534f4160e01b604082015260600190565b6001600160a01b038a1660009081526008602052604090205460ff161515600114610ee85760405162461bcd60e51b81526020600482015260036024820152620a69c960eb1b60448201526064016107b4565b60007f0000000000000000000000000000000000000000000000000000000000000000610f188d8c8c8c8c610c33565b604051602001610f29929190612cc4565b60408051601f198184030181528282528051602091820120600080855291840180845281905260ff8a169284019290925260608301889052608083018790529092509060019060a0016020604051602081039080840390855afa158015610f94573d6000803e3d6000fd5b5050506020604051035190508b6001600160a01b0316816001600160a01b031614610fe95760405162461bcd60e51b815260206004820152600560248201526410a9a4a3a760d91b60448201526064016107b4565b6001600160a01b038d1660008181526009602090815260408083208054600160ff1991821681179092558d85526014845282852080549091169091179055600f805484526012909252822080546001600160a01b0319169093179092558154919061105383612cfd565b919050555050505050505050505050505050565b6001600160a01b0388166000908152600660205260409020548890859060ff1615156001036110a85760405162461bcd60e51b81526004016107b490612c16565b6001600160a01b03821660009081526007602052604090205460ff1615156001036110e55760405162461bcd60e51b81526004016107b490612c33565b6001600160a01b03821660009081526009602052604090205460ff1615156001036111225760405162461bcd60e51b81526004016107b490612c50565b6001600160a01b03821660009081526008602052604090205460ff16151560010361115f5760405162461bcd60e51b81526004016107b490612c6d565b6004546001600160a01b0380841691160361118c5760405162461bcd60e51b81526004016107b490612c8a565b60008181526014602052604090205460ff1615156001036111bf5760405162461bcd60e51b81526004016107b490612ca7565b6040805180820190915260038152621a1bd960ea1b6020918201528751908801207f4c6726fee7c25b5e036a5e6d5ba226ec7444aa63d9883493310ff1ba0ec22840146112375760405162461bcd60e51b81526004016107b49060208082526004908201526348534f4160e01b604082015260600190565b60007f00000000000000000000000000000000000000000000000000000000000000006112678c8c8c8c8c610c33565b604051602001611278929190612cc4565b60408051601f198184030181528282528051602091820120600080855291840180845281905260ff8a169284019290925260608301889052608083018790529092509060019060a0016020604051602081039080840390855afa1580156112e3573d6000803e3d6000fd5b5050604051601f1901516004549092506001600160a01b03808416911614905061131f5760405162461bcd60e51b81526004016107b490612cdf565b6001600160a01b038c1660008181526008602090815260408083208054600160ff1991821681179092558d85526014845282852080549091169091179055600f805484526013909252822080546001600160a01b03191690931790925581549190610aa183612cfd565b6001600160a01b03881660009081526006602052604090205460ff1615156001146113dc5760405162461bcd60e51b8152602060048201526003602482015262594e5360e81b60448201526064016107b4565b600e856040516113ec9190612e6c565b9081526040519081900360200190205460ff161561141c5760405162461bcd60e51b81526004016107b490612c50565b600080600061142a87611519565b9250925092506114418a8a8a8e8a89878a8a611a29565b61144b8686611f0f565b5060408051808201825287815260016020808301919091526001600160a01b038e166000908152600b82528381208d825290915291909120815181906114919082612dad565b506020918201516001918201805460ff19169115159190911790556001600160a01b038d166000908152600d9092526040918290208b90559051600e906114d9908b90612e6c565b908152604051908190036020019020805491151560ff19909216919091179055600354890361150c5761150c8b85610ab4565b5050505050505050505050565b600080600083516041146115585760405162461bcd60e51b81526004016107b49060208082526004908201526304c494e560e41b604082015260600190565b50505060208101516040820151606090920151909260009190911a90565b6001600160a01b0389166000908152600660205260409020548990859060ff1615156001036115b75760405162461bcd60e51b81526004016107b490612c16565b6001600160a01b03821660009081526007602052604090205460ff1615156001036115f45760405162461bcd60e51b81526004016107b490612c33565b6001600160a01b03821660009081526009602052604090205460ff1615156001036116315760405162461bcd60e51b81526004016107b490612c50565b6001600160a01b03821660009081526008602052604090205460ff16151560010361166e5760405162461bcd60e51b81526004016107b490612c6d565b6004546001600160a01b0380841691160361169b5760405162461bcd60e51b81526004016107b490612c8a565b60008181526014602052604090205460ff1615156001036116ce5760405162461bcd60e51b81526004016107b490612ca7565b6040805180820190915260078152661cdd1d59195b9d60ca1b6020918201528751908801207f51e8ccf16b7d0bf6dbff3704faa1cc765b8473004eafd29e94bfe47167ff5e931461174a5760405162461bcd60e51b81526004016107b49060208082526004908201526353534f4160e01b604082015260600190565b6001600160a01b038a1660009081526009602052604090205460ff16151560011461179d5760405162461bcd60e51b8152602060048201526003602482015262534e4d60e81b60448201526064016107b4565b60007f00000000000000000000000000000000000000000000000000000000000000006117cd8d8c8c8c8c610c33565b6040516020016117de929190612cc4565b60408051601f198184030181528282528051602091820120600080855291840180845281905260ff8a169284019290925260608301889052608083018790529092509060019060a0016020604051602081039080840390855afa158015611849573d6000803e3d6000fd5b5050506020604051035190508b6001600160a01b0316816001600160a01b03161461189e5760405162461bcd60e51b815260206004820152600560248201526410a9a4a3a760d91b60448201526064016107b4565b6001600160a01b038d1660008181526006602090815260408083208054600160ff1991821681179092558d85526014845282852080549091169091179055600f805484526011909252822080546001600160a01b0319169093179092558154919061105383612cfd565b60006040518060a0016040528060618152602001612ece60619139805160209182012086518783012085518684012085518685012060408051958601949094529284018a905260608401919091526001600160a01b038716608084015260a083015260c082015260e001610ca1565b600b60209081526000928352604080842090915290825290208054819061199d90612d24565b80601f01602080910402602001604051908101604052809291908181526020018280546119c990612d24565b8015611a165780601f106119eb57610100808354040283529160200191611a16565b820191906000526020600020905b8154815290600101906020018083116119f957829003601f168201915b5050506001909301549192505060ff1682565b6001600160a01b03891660009081526009602052604090205460ff161515600114611a7f5760405162461bcd60e51b81526004016107b4906020808252600490820152634d494e4560e01b604082015260600190565b60007f0000000000000000000000000000000000000000000000000000000000000000611aaf8a8a8a8a8a611908565b604051602001611ac0929190612cc4565b60408051601f198184030181528282528051602091820120600080855291840180845281905260ff88169284019290925260608301869052608083018590529092509060019060a0016020604051602081039080840390855afa158015611b2b573d6000803e3d6000fd5b5050506020604051035190508a6001600160a01b0316816001600160a01b03161461150c5760405162461bcd60e51b81526004016107b49060208082526004908201526310a6a2a760e11b604082015260600190565b60058054611b8e90612d24565b80601f0160208091040260200160405190810160405280929190818152602001828054611bba90612d24565b8015611c075780601f10611bdc57610100808354040283529160200191611c07565b820191906000526020600020905b815481529060010190602001808311611bea57829003601f168201915b505050505081565b6001600160a01b0386166000908152600d60205260409020548311801590611c46575060008181526014602052604090205460ff16155b611c7b5760405162461bcd60e51b81526020600482015260066024820152654e45494f554d60d01b60448201526064016107b4565b6001600160a01b03851660009081526009602052604090205460ff161515600114611cce5760405162461bcd60e51b8152602060048201526003602482015262594e4d60e81b60448201526064016107b4565b60007f0000000000000000000000000000000000000000000000000000000000000000611cfd88878588610bb8565b604051602001611d0e929190612cc4565b6040516020818303038152906040528051906020012090506000806000611d3486611519565b925092509250600060018583868660405160008152602001604052604051611d78949392919093845260ff9290921660208401526040830152606082015260800190565b6020604051602081039080840390855afa158015611d9a573d6000803e3d6000fd5b505050602060405103519050896001600160a01b0316816001600160a01b031614611dd75760405162461bcd60e51b81526004016107b490612cdf565b6040805180820182528a815260016020808301919091526001600160a01b038e166000908152600b82528381208c82529091529190912081518190611e1c9082612dad565b506020918201516001918201805491151560ff19928316179055600098895260149092526040909720805490911690961790955550505050505050505050565b6001600160a01b0381166000908152600c6020526040902060019081015460ff16151514611eb25760405162461bcd60e51b815260206004820152600360248201526227222160e91b60448201526064016107b4565b604080516060810182526000818301818152825260208083018290526001600160a01b0385168252600c90529190912081518190611ef09082612dad565b50602091909101516001909101805460ff191691151591909117905550565b60008083604051602001611f239190612e88565b60408051601f1981840301815291905280516020909101206000549091506001600160a01b0316611f5484836106f4565b6001600160a01b031614611fa35760405162461bcd60e51b815260206004820152601660248201527524a72b20a624a22fa922a620aca2a92fa9a4a3a722a960511b60448201526064016107b4565b5060019392505050565b6001600160a01b0381166000908152600c602052604090208054606091908190611fd690612d24565b80601f016020809104026020016040519081016040528092919081815260200182805461200290612d24565b801561204f5780601f106120245761010080835404028352916020019161204f565b820191906000526020600020905b81548152906001019060200180831161203257829003601f168201915b5050505050915050919050565b6001600160a01b0384166000908152600d6020526040902054600354148015612094575060008281526014602052604090205460ff16155b6120c95760405162461bcd60e51b815260206004820152600660248201526513915253d55160d21b60448201526064016107b4565b60007f00000000000000000000000000000000000000000000000000000000000000006120fa868686600354610bb8565b60405160200161210b929190612cc4565b604051602081830303815290604052805190602001209050600080600061213185611519565b925092509250600060018583868660405160008152602001604052604051612175949392919093845260ff9290921660208401526040830152606082015260800190565b6020604051602081039080840390855afa158015612197573d6000803e3d6000fd5b5050604051601f1901516004549092506001600160a01b0380841691161490506121d35760405162461bcd60e51b81526004016107b490612cdf565b60408051808201825289815260016020808301919091526001600160a01b038c166000908152600c90915291909120815181906122109082612dad565b506020918201516001918201805491151560ff199283161790556000998a526014909252604090982080549091169097179096555050505050505050565b6001600160a01b0382166000908152600b602090815260408083208484529091529020805460609190819061228290612d24565b80601f01602080910402602001604051908101604052809291908181526020018280546122ae90612d24565b80156122fb5780601f106122d0576101008083540402835291602001916122fb565b820191906000526020600020905b8154815290600101906020018083116122de57829003601f168201915b505050505091505092915050565b60028054611b8e90612d24565b600c6020526000908152604090208054819061199d90612d24565b80356001600160a01b038116811461234857600080fd5b919050565b60006020828403121561235f57600080fd5b61236882612331565b9392505050565b634e487b7160e01b600052604160045260246000fd5b600082601f83011261239657600080fd5b81356001600160401b03808211156123b0576123b061236f565b604051601f8301601f19908116603f011681019082821181831017156123d8576123d861236f565b816040528381528660208588010111156123f157600080fd5b836020870160208301376000602085830101528094505050505092915050565b6000806040838503121561242457600080fd5b82356001600160401b0381111561243a57600080fd5b61244685828601612385565b95602094909401359450505050565b803560ff8116811461234857600080fd5b600080600080600080600080610100898b03121561248357600080fd5b61248c89612331565b975060208901356001600160401b03808211156124a857600080fd5b6124b48c838d01612385565b985060408b01359150808211156124ca57600080fd5b6124d68c838d01612385565b975060608b01359150808211156124ec57600080fd5b506124f98b828c01612385565b9550506080890135935061250f60a08a01612455565b925060c0890135915060e089013590509295985092959890939650565b6000806040838503121561253f57600080fd5b61254883612331565b915060208301356001600160401b0381111561256357600080fd5b61256f85828601612385565b9150509250929050565b60006020828403121561258b57600080fd5b5035919050565b600080600080608085870312156125a857600080fd5b6125b185612331565b935060208501356001600160401b038111156125cc57600080fd5b6125d887828801612385565b949794965050505060408301359260600135919050565b600080600080600060a0868803121561260757600080fd5b61261086612331565b945060208601356001600160401b038082111561262c57600080fd5b61263889838a01612385565b9550604088013591508082111561264e57600080fd5b61265a89838a01612385565b9450606088013591508082111561267057600080fd5b5061267d88828901612385565b95989497509295608001359392505050565b60008060008060008060008060006101208a8c0312156126ae57600080fd5b6126b78a612331565b98506126c560208b01612331565b975060408a01356001600160401b03808211156126e157600080fd5b6126ed8d838e01612385565b985060608c013591508082111561270357600080fd5b61270f8d838e01612385565b975060808c013591508082111561272557600080fd5b506127328c828d01612385565b95505060a08a0135935061274860c08b01612455565b925060e08a013591506101008a013590509295985092959850929598565b600080600080600080600080610100898b03121561278357600080fd5b61278c89612331565b975061279a60208a01612331565b96506040890135955060608901356001600160401b03808211156127bd57600080fd5b6127c98c838d01612385565b965060808b01359150808211156127df57600080fd5b6127eb8c838d01612385565b955060a08b013591508082111561280157600080fd5b61280d8c838d01612385565b945060c08b013591508082111561282357600080fd5b61282f8c838d01612385565b935060e08b013591508082111561284557600080fd5b506128528b828c01612385565b9150509295985092959890939650565b60006020828403121561287457600080fd5b81356001600160401b0381111561288a57600080fd5b61289684828501612385565b949350505050565b600080600080600060a086880312156128b657600080fd5b8535945060208601356001600160401b03808211156128d457600080fd5b6128e089838a01612385565b95506128ee60408901612331565b9450606088013591508082111561290457600080fd5b61291089838a01612385565b9350608088013591508082111561292657600080fd5b5061293388828901612385565b9150509295509295909350565b6000806040838503121561295357600080fd5b61295c83612331565b946020939093013593505050565b60005b8381101561298557818101518382015260200161296d565b50506000910152565b600081518084526129a681602086016020860161296a565b601f01601f19169290920160200192915050565b6040815260006129cd604083018561298e565b905082151560208301529392505050565b60008060008060008060008060006101208a8c0312156129fd57600080fd5b612a068a612331565b985060208a0135975060408a01356001600160401b0380821115612a2957600080fd5b612a358d838e01612385565b9850612a4360608d01612331565b975060808c0135915080821115612a5957600080fd5b612a658d838e01612385565b965060a08c0135915080821115612a7b57600080fd5b50612a888c828d01612385565b94505061274860c08b01612455565b602081526000612368602083018461298e565b60008060008060008060c08789031215612ac357600080fd5b612acc87612331565b9550612ada60208801612331565b945060408701356001600160401b0380821115612af657600080fd5b612b028a838b01612385565b9550606089013594506080890135915080821115612b1f57600080fd5b50612b2c89828a01612385565b92505060a087013590509295509295509295565b60008060408385031215612b5357600080fd5b82356001600160401b0380821115612b6a57600080fd5b612b7686838701612385565b93506020850135915080821115612b8c57600080fd5b5061256f85828601612385565b60008060008060808587031215612baf57600080fd5b612bb885612331565b935060208501356001600160401b0380821115612bd457600080fd5b612be088838901612385565b9450604087013593506060870135915080821115612bfd57600080fd5b50612c0a87828801612385565b91505092959194509250565b60208082526003908201526259415360e81b604082015260600190565b60208082526003908201526259414760e81b604082015260600190565b60208082526003908201526259414d60e81b604082015260600190565b6020808252600390820152620b282960eb1b604082015260600190565b6020808252600390820152624f434d60e81b604082015260600190565b60208082526003908201526249415560e81b604082015260600190565b61190160f01b81526002810192909252602282015260420190565b6020808252600490820152632153494760e01b604082015260600190565b600060018201612d1d57634e487b7160e01b600052601160045260246000fd5b5060010190565b600181811c90821680612d3857607f821691505b602082108103612d5857634e487b7160e01b600052602260045260246000fd5b50919050565b601f821115612da857600081815260208120601f850160051c81016020861015612d855750805b601f850160051c820191505b81811015612da457828155600101612d91565b5050505b505050565b81516001600160401b03811115612dc657612dc661236f565b612dda81612dd48454612d24565b84612d5e565b602080601f831160018114612e0f5760008415612df75750858301515b600019600386901b1c1916600185901b178555612da4565b600085815260208120601f198616915b82811015612e3e57888601518255948401946001909101908401612e1f565b5085821015612e5c5787850151600019600388901b60f8161c191681555b5050505050600190811b01905550565b60008251612e7e81846020870161296a565b9190910192915050565b7f19457468657265756d205369676e6564204d6573736167653a0a353900000000815260008251612ec081601c85016020870161296a565b91909101601c019291505056fe7369676e53747564656e742875696e743235362063757272656e7453656d4e756d2c737472696e6720726563656970744e6f2c6164647265737320737475642c737472696e6720697066734369642c737472696e67206465677265654970667329456e726f6c6c2861646472657373206163636f756e742c737472696e67205f7365637265744b65795f312c737472696e67205f7365637265744b65795f322c737472696e6720726f6c652c75696e7432353620756e697175654964297570646174652861646472657373206163636f756e742c737472696e67206369642c75696e7432353620756e6971756549642c75696e743235362073656d4e6f29a26469706673582212202f7aa2463d117724a19e730064189fe239289f6c604e525dc7f2d5ee3a20092364736f6c63430008130033",
  "immutableReferences": {
    "260": [
      {
        "length": 32,
        "start": 2387
      },
      {
        "length": 32,
        "start": 3820
      },
      {
        "length": 32,
        "start": 4667
      },
      {
        "length": 32,
        "start": 6049
      },
      {
        "length": 32,
        "start": 6787
      },
      {
        "length": 32,
        "start": 7378
      },
      {
        "length": 32,
        "start": 8397
      }
    ]
  },
  "source": "// SPDX-License-Identifier: MIT\npragma solidity >=0.8.19;\ncontract Governance{\n    address public relayer;\n    address public contractAddress;\n    string public governanceName;\n    uint public totalEndExamination;\n    address public owner;\n    string public batch;\n    mapping(address=>bool) public student;\n    mapping(address=>bool) public grader;\n    mapping(address=>bool) public hod;\n    mapping(address=>bool) public mentors;\n    uint public graderNonceCount = 0;\nstruct Certificate{\n    string ipfsCID;\n    bool status;\n}\nmapping(address=>mapping(uint=>Certificate)) public semCertIssuance;\nmapping(address=>Certificate) public degreeCert;\nmapping(address=>uint) public currentSemester;\nmapping(string=>bool) public isUsedReceipt;\nuint internal immutable CHAIN_ID;\nbytes32 internal immutable INITIAL_DOMAIN_SEPARATOR;\nuint public nonce;\nmapping (uint=>address) public graderNonce;\nmapping (uint=>address) public studentNonce;\nmapping (uint=>address) public mentorNonce;\nmapping (uint=>address) public hodNonce;\nmapping(uint=>bool) isUniqueIdUsed;\nconstructor(string memory _governanceName,uint _totalEndExamination, address _owner,string memory _batch,address _relayer){\ncontractAddress = address(this);\ngovernanceName = _governanceName;\ntotalEndExamination =_totalEndExamination;\nowner = _owner;\nbatch = _batch;\nCHAIN_ID = block.chainid;\nrelayer = _relayer;\nINITIAL_DOMAIN_SEPARATOR = hashDomain(_governanceName,\"1\",block.chainid,address(this));\n}\nmodifier Elig(address add,uint uniqueId){\nrequire(student[add] != true,\"YAS\");\nrequire(grader[add] != true,\"YAG\");\nrequire(mentors[add] != true,\"YAM\");\nrequire(hod[add] != true,\"YAH\");\nrequire(owner != add,\"OCM\");\nrequire(isUniqueIdUsed[uniqueId] != true,\"IAU\");\n    _;\n}\nfunction hash(address add,string memory _secretKey_1, string memory _secretKey_2,string memory role,uint256 uniqueId) public  pure returns(bytes32){\nreturn (keccak256(abi.encode(\nkeccak256(bytes(\"Enroll(address account,string _secretKey_1,string _secretKey_2,string role,uint256 uniqueId)\")),\nadd,\nkeccak256(bytes(_secretKey_1)),\nkeccak256(bytes(_secretKey_2)),\nkeccak256(bytes(role)),\nuniqueId\n)));\n}\nfunction becomeGrader(address graderAddress,string memory _secretKey_1, string memory _secretKey_2, string memory role,uint256 uniqueId,uint8 v, bytes32 r, bytes32 s) Elig(graderAddress,uniqueId)  external{\nrequire(keccak256(bytes(role)) == keccak256(bytes(\"grader\")),\"GSOA\");\nbytes32 digest = keccak256(abi.encodePacked(\n            \"\\x19\\x01\",\n            INITIAL_DOMAIN_SEPARATOR,\n            hash(graderAddress,_secretKey_1, _secretKey_2,role,uniqueId)\n        ));\naddress recoveredAddress = ecrecover(digest, v, r, s);\nrequire(recoveredAddress == owner,\"!SIG\");\ngrader[graderAddress] = true;\nisUniqueIdUsed[uniqueId] = true;\ngraderNonce[nonce] = graderAddress;\nnonce++;\n}\nfunction becomeHod(address hodAddress,string memory _secretKey_1, string memory _secretKey_2, string memory role,uint256 uniqueId,uint8 v, bytes32 r, bytes32 s) Elig(hodAddress,uniqueId)  external{\nrequire(keccak256(bytes(role)) == keccak256(bytes(\"hod\")),\"HSOA\");\nbytes32 digest = keccak256(abi.encodePacked(\n            \"\\x19\\x01\",\n            INITIAL_DOMAIN_SEPARATOR,\n            hash(hodAddress,_secretKey_1, _secretKey_2,role,uniqueId)\n        ));\naddress recoveredAddress = ecrecover(digest, v, r, s);\nrequire(recoveredAddress == owner,\"!SIG\");\nhod[hodAddress] = true;\nisUniqueIdUsed[uniqueId] = true;\nhodNonce[nonce] = hodAddress;\nnonce++;\n}\n function becomeStudent(address studentAddress,address signer,string memory _secretKey_1, string memory _secretKey_2, string memory role,uint256 uniqueId,uint8 v, bytes32 r, bytes32 s) Elig(studentAddress,uniqueId)  external{\nrequire(keccak256(bytes(role)) == keccak256(bytes(\"student\")),\"SSOA\");\nrequire(mentors[signer] == true,\"SNM\");\nbytes32 digest = keccak256(abi.encodePacked(\n            \"\\x19\\x01\",\n            INITIAL_DOMAIN_SEPARATOR,\n            hash(studentAddress,_secretKey_1, _secretKey_2,role,uniqueId)\n        ));\naddress recoveredAddress = ecrecover(digest, v, r, s);\nrequire(recoveredAddress == signer,\"!SIGN\");\nstudent[studentAddress] = true;\nisUniqueIdUsed[uniqueId] = true;\nstudentNonce[nonce] = studentAddress;\nnonce++;\n}\nfunction becomeMentor(address mentorAddress,address signer,string memory _secretKey_1, string memory _secretKey_2, string memory role,uint256 uniqueId,uint8 v, bytes32 r, bytes32 s) Elig(mentorAddress,uniqueId)  external{\nrequire(keccak256(bytes(role)) == keccak256(bytes(\"mentor\")),\"MSOA\");\nrequire(hod[signer] == true,\"SNH\");\nbytes32 digest = keccak256(abi.encodePacked(\n            \"\\x19\\x01\",\n            INITIAL_DOMAIN_SEPARATOR,\n            hash(mentorAddress,_secretKey_1, _secretKey_2,role,uniqueId)\n        ));\naddress recoveredAddress = ecrecover(digest, v, r, s);\nrequire(recoveredAddress == signer,\"!SIGN\");\nmentors[mentorAddress] = true;\nisUniqueIdUsed[uniqueId] = true;\nmentorNonce[nonce] = mentorAddress;\nnonce++;\n}\nfunction recover(bytes memory _signature,bytes32 _ethHash)public pure returns(address){\n       (bytes32 r,bytes32 s,uint8 v) = split(_signature);\n       return ecrecover(_ethHash,v,r,s);\n}\nfunction split(bytes memory  _signature)public pure returns(bytes32 r,bytes32 s,uint8 v){\n       require(_signature.length == 65,\"LINP\");\n         assembly {\n          \n            r := mload(add(_signature, 32))\n            s := mload(add(_signature, 64))\n            v := byte(0, mload(add(_signature, 96)))\n        }\n}\nfunction isStudent(address _add)external view returns(bool){\n    return student[_add];\n}\nfunction isGrader(address _add)external view returns(bool){\n    return grader[_add];\n}\nfunction isMentor(address _add)external view returns(bool){\n    return mentors[_add];\n}\nfunction isHod(address _add) external view returns(bool){\n    return hod[_add];\n}\nfunction isVerifyByrelayer(string memory _ipfsCID,bytes memory signature)public view returns (bool){\nbytes32 _ethHash = keccak256(abi.encodePacked(\"\\x19Ethereum Signed Message:\\n59\",_ipfsCID));\nrequire(recover(signature,_ethHash) == relayer,\"INVALID_RELAYER_SIGNER\");\nreturn true;\n}\nfunction mentorSignStudent(uint256 currentSemNum,string memory receiptNo,address stud,string memory ipfsCid,string memory degreeIpfs)public pure returns(bytes32){\n    return (keccak256(abi.encode(\n            keccak256(bytes(\"signStudent(uint256 currentSemNum,string receiptNo,address stud,string ipfsCid,string degreeIpfs)\")),\n            currentSemNum,\n            keccak256(bytes(receiptNo)),\n            stud,\n            keccak256(bytes(ipfsCid)),\n            keccak256(bytes(degreeIpfs))\n        )));\n    } \n\nfunction isMentorSign(address mentor,uint256 currentSemNum,string memory receiptNo,address _studentAdd,string memory cid,string memory degreeCid,uint8 v, bytes32 r, bytes32 s) public view {\nrequire(mentors[mentor] == true,\"MINE\");\nbytes32 digest = keccak256(abi.encodePacked(\n            \"\\x19\\x01\",\n            INITIAL_DOMAIN_SEPARATOR,\n            mentorSignStudent(currentSemNum, receiptNo,_studentAdd,cid,degreeCid)\n        ));\naddress recoveredAddress = ecrecover(digest, v, r, s);\nrequire(recoveredAddress == mentor,\"!MEN\");\n}\nfunction mintCert(address _student,address mentor,uint256 currentSemNum,string memory receiptNo,bytes memory mentorSignature, string memory _ipfsCID,bytes memory relayerSig,string memory degreeIpfs) external{\nrequire(student[_student] == true,\"YNS\");\nrequire(isUsedReceipt[receiptNo] == false,\"YAM\");\n(bytes32 r,bytes32 s,uint8 v) = split(mentorSignature);\nisMentorSign(mentor,currentSemNum,receiptNo,_student,_ipfsCID,degreeIpfs,v,r,s);\nisVerifyByrelayer(_ipfsCID,relayerSig);\nsemCertIssuance[_student][currentSemNum] = Certificate(_ipfsCID, true);\ncurrentSemester[_student] = currentSemNum;\nisUsedReceipt[receiptNo] = true;\nif(currentSemNum == totalEndExamination)\nmintDegreeCert(_student,degreeIpfs);\n}\nfunction mintDegreeCert(address _student,string memory _ipfsCID) public {\n    require(student[_student] == true,\"!YANHRTM\");\n    require(currentSemester[_student] == totalEndExamination,\"NEM\");\n    degreeCert[_student] = Certificate(_ipfsCID,true);\n}\nfunction getSemMarkSheet(address _stud,uint sem)public view returns (string memory){\n    Certificate storage _cert = semCertIssuance[_stud][sem];\n    return (_cert.ipfsCID);\n}\nfunction getDegree(address _stud)public view returns (string memory){\n    Certificate storage _cert = degreeCert[_stud];\n    return (_cert.ipfsCID);\n}\nfunction hashUpd(address _add,string memory _cid,uint256 uniqueId,uint256 semNo) public  pure returns(bytes32){\nreturn (keccak256(abi.encode(\nkeccak256(bytes(\"update(address account,string cid,uint256 uniqueId,uint256 semNo)\")),\n_add,\nkeccak256(bytes(_cid)),\nuniqueId,\nsemNo\n)));\n}\n\nfunction editSemMarkSheet(address _student,address _mentor,string memory newIpfsCid,uint semesterNum,bytes memory sign,uint256 uniqueId)external {\n    require(semesterNum <= currentSemester[_student] && isUniqueIdUsed[uniqueId] == false,\"NEIOUM\");\n    require(mentors[_mentor] == true,\"YNM\");\n    bytes32 digest = keccak256(abi.encodePacked(\n            \"\\x19\\x01\",\n            INITIAL_DOMAIN_SEPARATOR,\n            hashUpd(_student,newIpfsCid,uniqueId,semesterNum)\n        ));\n(bytes32 r,bytes32 s,uint8 v) = split(sign);\naddress recoveredAddress = ecrecover(digest, v, r, s);\nrequire(recoveredAddress == _mentor,\"!SIG\");\n    semCertIssuance[_student][semesterNum] = Certificate(newIpfsCid,true);\n    isUniqueIdUsed[uniqueId] = true;\n\n}\nfunction editDegreeCert(address _student,string memory newIpfsCid,uint256 uniqueId,bytes memory sign)external {\nrequire(totalEndExamination == currentSemester[_student]&& isUniqueIdUsed[uniqueId] == false,\"NEIOUD\");\n   bytes32 digest = keccak256(abi.encodePacked(\n            \"\\x19\\x01\",\n            INITIAL_DOMAIN_SEPARATOR,\n            hashUpd(_student,newIpfsCid,uniqueId,totalEndExamination)\n        ));\n(bytes32 r,bytes32 s,uint8 v) = split(sign);\naddress recoveredAddress = ecrecover(digest, v, r, s);\nrequire(recoveredAddress == owner,\"!SIG\");\ndegreeCert[_student] = Certificate(newIpfsCid,true);\n isUniqueIdUsed[uniqueId] = true;\n}\nfunction burnDegreeCert(address _student) external {\n    require(degreeCert[_student].status == true,\"NDB\");\n    degreeCert[_student] = Certificate(\"\",false);\n}\nfunction returnChainId()public view returns(uint){\n    return block.chainid;\n}\nfunction hashDomain(string memory name,string memory version,uint chainId,address verifyingContract) private pure returns (bytes32) {\n        return keccak256(abi.encode(\n            keccak256(\"EIP712Domain(string name,string version,uint256 chainId,address verifyingContract)\"),\n            keccak256(bytes(name)),\n            keccak256(bytes(version)),\n            chainId,\n            verifyingContract\n        ));\n    }\n\n}",
  "sourcePath": "/home/lenovo/Desktop/souldem/contracts/contracts/Governance.sol",
  "compiler": {
    "name": "solc",
    "version": "0.8.19+commit.7dd6d404.Emscripten.clang"
  },
  "schemaVersion": "3.4.16",
  "updatedAt": "2024-08-11T12:30:58.721Z",
  "networkType": "ethereum",
  "devdoc": {
    "kind": "dev",
    "methods": {},
    "version": 1
  },
  "userdoc": {
    "kind": "user",
    "methods": {},
    "version": 1
  }
}